:20000000004000205967010001C9011001C9011001C9011001C9011001C9011001C901109D
:1C00200001C9011001C9011001C9011001C9011001C9011001C901103FC9011089
:20003C002DE9F04F85B0804611F8010BDFF81028009008F1FD00009B182B08F1E70508F1EE
:20005C00660A08F20D1B08F5B07408F1860908F59C7608F5C67700F2E183DFE813F01900C7
:20007C006A0080018800DF03DF03F100BA0303011801F40000014701DF03DF039F01DF03DF
:20009C0082016A01C6030B030B035E02DF03A90211F8015B89F80050022208F1880000F0B9
:2000BC00D9FB0146022208F18A0000F0D3FB0146022208F18C0000F0CDFB0146022208F198
:2000DC008E0000F0C7FB99F80010B9F80220490089F800105200B9F80410A9F80220490053
:2000FC00A9F804100222B9F808100901A9F80810014608F1840000F0ADFBBAF81E10B8F893
:20011C000800091A89B247F6FF72914225DAB9F80600B9F80410B9F80820401C4900484358
:20013C00904228BF3B2080F06F8201208AF81C0018E0052208F1610000F08CFB0146022214
:20015C0008F1920000F086FBB9F80C10B8F80800091A89B247F6FF72914280F254820120BA
:20017C0089F80A000021A8F81E10307065E3AA7DD00709D4687B1A210128A97302D1FF22CF
:20019C000D213BE00D210DE200208AF8000001226A7408F1B000082200F05CFB01460222B5
:2001BC0008F1B80000F056FB08F1A80401460822204600F04FFB06460821204600F04EFB67
:2001DC0008F19C0404223146204600F043FB0421204600F043FB08F1A00000F043FB08F1C0
:2001FC00980000F043FBDFF85C06018841F080010180687B012807D1FF220421404605B0C3
:20021C00BDE8F04F12F040B89AF811500F2D18BF142D03D00E2D18BF0C2D0FD19AF81040BD
:20023C00404614F011FE0421404612F0C7FF012C12BF29468AF81A50FD21B3E10421B1E1D4
:20025C000120E873F9E2002100208AF800108AF8060001216973287068700B21A2E1012092
:20027C002874EAE2541C00230932CD5CD65C3543CD54E65C3540C5545B1C082BF5DB9AF85C
:20029C00060000284BD0404613F03AF8CBE2002302F10906CF5C16F803C04CEA0707CF5409
:2002BC0002F1010E1EF8039007EA0907C7545B1C082BEFDB02206875E97D080703D440F666
:2002DC004800A081E08150788106CAD520891B2804BF60891B2807D1A089B0F5A47F04BFE3
:2002FC00E089B0F5A47FBCD014215BE19BF80000012811D011F8012B8BF8032008F5897046
:20031C00022200F0A7FA0146022208F58A7000F0A1FA01218BF800109AF80600002800F0BA
:20033C00AF819BF8020000282AD1404612F0B6FA79E2A87DDFF81045C10609D412208BF87C
:20035C000C00404614F0DEFE002819D120786DE2404615F0C9FB002812D1207866E208785C
:20037C0052E108782070497861709AF8100001280ED19AF811000F38012802D9C01F03D042
:20039C005BE20122727358E2387B40F0010043E205B0BDE8F04F002019F002B9A87DDFF840
:2003BC00A844820709D40F208BF80C00404614F0A9FE0028E7D1207838E208784A7800EB21
:2003DC0002203082CA78887800EB022070824A79087900EB0220B082CA79887900EB022018
:2003FC00F082087A30764A7A887A02EB00227283C87A0A7B00EB0220B0838A7B487B00EBC3
:20041C000220F0830A7CC87B00EB022030848A7C487C00EB022070840A7DC87C00EB0220FE
:20043C00B084487D897D00EB0120F084DFF81C0401788A0658BF1A2213D508F5AA7004903B
:20045C00718B0391307E0290B8F808100191F08A0090B38A728A318A404611F053FFA0B12E
:20047C001E22A87D410709D40F208BF80C00404614F048FE00284DD12078D7E1404605B077
:20049C00BDE8F04F0F2117F05FBA708AA9F804000022B18AA9F806100221F08AA9F8080013
:2004BC0089F80010A9F80220B8F83400C01DAAF81E00B8F83210B9F80400B0EB510F02BFE8
:2004DC00B9F80600B8F83410884202BFB9F80800B8F83610B0EB111F1DD09AF81000012898
:2004FC0004BF9AF811000F2807D09AF8150020B10F218AF81A10FE2154E0FC21404612F020
:20051C005DFEF08A0090B38A728A318A98F8060000F0B0F991E1102144E0E87D10F0090FF3
:20053C0003D116208BF80C007AE14A78087802F00702104008707A7B0240FA7211D0501EB4
:20055C0002420CD0520704D5B87B10B10421F97205E0F97A0220014219D14008FBD1F87A7C
:20057C0008B9B87AF872F87A042803D1404614F043F9A083F87A00F081F93871A28BB97BC1
:20059C00012315F0EBFE218B814202D208E0F872E5E7A28BB97B3879012315F0DFFE01466D
:2005BC0079801721404605B0BDE8F04F12F006BE48780A78824207D100F00700104008706C
:2005DC0033D0431E18420FD01E221821404617F0BBF998F80610012301221E200DF0E4FF9D
:2005FC00387B40F0400017E1F87247F6FF728878C97800EB012038813989B8F80800091A09
:20061C0089B2914206DB282001218BF80B008BF80A1012E10120B871F97A042903D1404603
:20063C0014F0EAF8A083F87A0BE09AF81100162806D1BB7A98F806101A4600200DF0B4FF75
:20065C00B87A3871A28BB97B3879012315F086FE218B814206D3A28BB97B3879012315F061
:20067C007DFE014679800121387B40F0400038733170E2E0142B04BF9AF80600002806D1B7
:20069C003D2101208BF80B108BF80A00D5E00A78487802EB002262828878CA7800EB02205B
:2006BC00E0824A79087900EB022020828879C97900EB0120A08208F5B07108F5B0708A8A09
:2006DC00C089B97A904288BF1046042905D140F691229042B8BF4FF42960E28BE083904270
:2006FC00B87A14BF01250025042805D1404614F083F8A28B90420AE008F5B07008F5B07163
:20071C008089CA8AA18B904288BF1046884214BF01210021A0830D4308F5B07008F5B07137
:20073C0000894A8A218B904288BF1046884214BF012100210D432083A28BB97BB87A01239B
:20075C0015F00CFE218B814206D3A28BB97BB87A012315F003FE0146798008F5B07008F50F
:20077C00B0724189108A628B814288BF01466183914298F8063014BF0120002005438A42F4
:20079C0033490A6802EB4311628B8041121DC00F0A7610B1404617F077FB009814280ED16F
:2007BC0045B1E08B0090638BA28B218B98F8060000F068F81521404611F060F833E01DB189
:2007DC00387840F008003870397841F02001397033E008780E280ED00F2809D0122804D0FC
:2007FC0014280BD0162811D027E00021317224E00120307321E0032169751EE0387840F033
:20081C000200387040F01000387016E0387B40F00200387340F0100038730EE08BF80C300C
:20083C00404614F06FFC40B9074800784FF4804105B0BDE8F04F0CF01FBC05B0BDE8F08F9A
:20085C0068270020524F00206E4F0020144E002054280020DFF800F0D1920010DFF800F010
:20087C00AD710110DFF800F00D720110DFF800F021720110DFF800F0E5BE0010DFF800F02A
:20089C00BD8F0010DFF800F065BF00102DE9F84F012017F047FB012819D1DFF898462078BE
:2008BC0000210CF03FFF5FEA000804BF002018F077FE002088F8080008F1040013F0E0FC8C
:2008DC0007F0FCF9050003D1812000F05BFB2AE301206871DFF86026DFF860064178491C91
:2008FC004170A87988F80A0040202178117005F597740FF08BF92860D8F854104A78D8F830
:20091C005000D1061AD5806D01680A79032A1CBF002018F045FED8F85000816D90F87C0047
:20093C000A6802F1080601281CBF002018F038FED8F85000D0F88410286846E0C06E0168FD
:20095C000A79032A1CBF002018F02AFED8F85000C16E90F898000A6802F1080601281CBFBA
:20097C00002018F01DFED8F85000DFF8D425D0F8A0102868DFF8CC95C16096F82670138808
:20099C00032F22D8DFE807F00205101801F5B06101E001F53471C160B9F80000E087B9F8B5
:2009BC000010A5F8741113E0E3871188A5F87411C26802F5355206E0E3871188A5F874111E
:2009DC00C26802F6B872C26002E001F5B061C1603078DFF87495DFF874B5C0F38010207028
:2009FC000622B11C05F5947019F06CFA042206F10E0105F1240019F065FAD9F80000AF79D2
:200A1C0000F10C03042206F10E0103EB471019F059FAD9F80000AB7900EB4317032206F197
:200A3C00120107F1100019F04DFA05F12C07707DB870022206F1160105F1300019F042FA54
:200A5C00022206F1180105F1320019F03BFA022206F11A0105F1340019F034FA388968849C
:200A7C00022206F11C0105F1360019F02BFAB87879894000B8700901B88879814000B88072
:200A9C0089B2F8884000F88003046A8C521CDB0B5A438A4201D280B230B99BF800008021EB
:200ABC000CF0EAFA3B213FE105F12E01284618F0A7FD0520A881284618F0DEFF052206F1C0
:200ADC001E0105F1610019F0FDF996F823004009387018F019FB6882B8F82A10401AA08178
:200AFC0005F1610196F82300DFF8644400F01F00F873284615F097FFD8F854104A78D8F809
:200B1C005000D10647BF0022806D0022C06E1C2601680A7141F62102A979206871434252BB
:200B3C000021AB7973430344001D5980AA7972438150D8F85420DFF81C045178CA060DD502
:200B5C00DFF814148A7851060AD5DFF81024138841F20A418B4208BFDFF80404C5F89C0151
:200B7C00D5F89C11284688472268A97902F10E03714358540021AA792068DFF8E83372431F
:200B9C000244D173187878B1B88868B979730120288168812846D5F89C2190472168AA797B
:200BBC0001F10E0372439854A8792168704301F10E02135C7B73D8F854104A78D1061AD5FD
:200BDC0095F8960108B918F0EBFCA97920687143014495F89601421E0A74A8792168704323
:200BFC000844002141742268A97902F112007143002242522AE0D8F85010236891F84020EE
:200C1C0018440274A879216870430844D8F8501091F841204274D8F850002168AB79403030
:200C3C0001F1120273434188D15205F5CB710078012200F0030082400A70D8F8502092F826
:200C5C004000800814BF012002200871A979D9F800002268DFF810A300EB411302F1140CC8
:200C7C0071434CF80130A97971431144BF4A8A61DAF81410097895F806E0CA074CBF102218
:200C9C0000228B074CBF202300235FEA417C4CBF4FF0400C4FF0000C09074CBF802100214F
:200CBC0013434CEA030308304FEA4E1E0B4343F00F0300F80E30D9F80010A87901EB4012A0
:200CDC000B215172D9F80000AA7900EB421104208872D9F80020A97902EB4110A44A1378EF
:200CFC00012B02D10121C17203E0DAF828104A78C272D9F80000A97900EB41121F201076AB
:200D1C00D9F80010AA7901EB421000214176A8790EF08EF8A979D9F8002049015050A979D9
:200D3C004B01D05820B90721284618F051FBFAE09048026802EB011000F028F98D4AA8793D
:200D5C001368D9F8001003EB00120B1D40011A50081DAA7952018058F863AA795201885824
:200D7C00786404219BF800000CF086F9D8F8540042782168D00648BF4FF0020B0BD4A879B8
:200D9C0070430844027C02F00302022A14BF4FF0040B4FF0060B734BBA881878934410B1FE
:200DBC000AB9F888834498F80D2090070AD50521284618F00DFB98F80D0000F0FD0088F82C
:200DDC000D00B4E0688A00FB0BF04FF4C872B0FBF2F2521CC5F818B06A6140F6C41CA8796D
:200DFC002B687043009001F1080ED8680CFB0B0B0098ABEB0202A2F5A8624EF8002001F171
:200E1C000802A87906FB00FB52F80B00986001F10C02A87970430C31135C03F0EF030B547E
:200E3C00A8792168704301F10C020C31135C03F07F030B54A8792168704301F10C020C311F
:200E5C00135C03F0F00343F002030B54A8792168704301F10D020D31135C03F0F00343F066
:200E7C0001030B542068A97900F10802714350582A6810616B69D9F80000AA7997F802E0B6
:200E9C005B0000F1140152010CFB0E3303F5F6638B5095F89611042907D1A979490100F178
:200EBC001402535803F561635350A97900EB4110C27C02F0F00242F00402C274FB88D9F8B4
:200EDC000010A879DAF8307001EB4012386843436427B3FBF7F30CFB03F0A0F59660D06116
:200EFC00A87901EB4010C17E01F0F00141F00401C176A97920682A684E4381195160284665
:200F1C000E2112F05BF91C4907200870404619F06FF8AA790021404613F03EFF286817493C
:200F3C00174A41618261BDE8F14F04F0CFBDBDE8F18F00BF992800209A280020684E0020CD
:200F5C008A28002088280020542800206E4F0020502800201355010068270020504F0020EB
:200F7C00974A0100784E002058CE01005C4D0020734F00208C4E00206F4F0020456E01002F
:200F9C0002048080DFF800F09D920010DFF800F051A5001010B542F60211044600E0103CD6
:200FBC002278022A03D1606800888142F7D0102A0FD16068094918F0B9F8002808BF0020A5
:200FDC000AD02278102A04D16068054918F0AEF808B1FF2010BD012010BDC0468ABE0100CC
:040FFC009ABE010098
:20100000B41200001810000015AB0110FDB301106DC00110FDAE011099B5011059BA0110D3
:0810200039BA01102D00000097
:20102800B01200003C100000B1C00110A9BF011067C0011069B80110B9B9011099B901104F
:041048003000000074
:20104C00B012000060100000BDC00110CDB30110D9BD01106DB301108DB80110D9B9011062
:04106C00310000004F
:2010700000000000280E002004000000000000000000000020000000E8C9011030000000F4
:2010900028100000300E00200400000000000000000000000C000000D8CA011018000000CF
:2010B0004C100000380E002004000000000000000000000024000000F0CA01101800000053
:2010D00000000000400E00200400000000000000000000001000000018CA01102C0000005F
:2010F00000100000500E0020040000000000000000000000200000006CCA011024000000C3
:20111000FFFFFFFF580E00200400000000000000000000002800000090CA01102400000082
:20113000FFFFFFFF600E00200400000000000000000000001400000008CB01101800000001
:20115000FFFFFFFF680E002004000000000000000000000058000000B4C9011034000000CF
:20117000FFFFFFFF700E00200400000000000000000000001000000020CB0110180000009D
:20119000FFFFFFFF780E00200400000000000000000000001C000000B4CA011024000000CA
:2011B000FFFFFFFF800E00200400000000000000000000003800000044CA011028000000F2
:2011D000FFFFFFFF880E00200400000000000000000000005400000078C901103C00000067
:0811F00002000000C8BF01006D
:0411F80001000000F2
:0411FC0000000E00E1
:0412000000000F00DB
:0412040032000000B4
:0412080001000000E1
:04120C00E40B0020CF
:0412100000020000D8
:0412140000000000D6
:0412180001C90110F7
:04121C0000000000CE
:0412200000000000CA
:0412240008000000BE
:0412280000002200A0
:04122C00CC090020C9
:0412300000000000BA
:0412340000000000B6
:0412380008000000AA
:04123C00700B002013
:0412400000000000AA
:0412440000000000A6
:04124800080000009A
:04124C00000000009E
:04125000000000009A
:041254000000000096
:041258000000000092
:04125C00010000008D
:04126000340A00202C
:041264000600000080
:041268000100000081
:04126C00BC0800209A
:04127000000000007A
:041274000000000076
:041278000002000070
:04127C00000000006E
:02128000290043
:02128200010069
:02128400250043
:02128600300036
:02128800310033
:02128A002D0035
:02128C0001005F
:01128E00015E
:08129000030000007CBF010017
:0812980000000000000000004E
:0412A0000000010049
:0412A4000000030043
:0412A80013C401105A
:0412AC0083A001001A
:0412B000B812000070
:0412B400B81200006C
:0412B8000000000032
:0412BC00B80D002049
:0412C0007DA201000A
:0412C4002000000006
:0412C80024BE01003F
:0412CC007CBC0100E5
:0412D00029C101101F
:0412D400B71C010042
:0412D80017240100D6
:0412DC00A1C7011095
:0412E000A3C701108F
:0412E4000000000006
:0412E8004EC00100F3
:0412EC00A0BA0100A3
:0412F000B8BA010087
:0412F40088BA0100B3
:0212F8000200F2
:0212FA000900E9
:0212FC000100EF
:0212FE000000EE
:0113000001EB
:04130400F1A1010052
:041308005D7B010008
:04130C008D920100BD
:041310001180010047
:04131400957B0100C4
:0413180071650100FA
:04131C009512010025
:041320007BA50100A8
:04132400E14901009A
:0413280015C70110D4
:04132C0025C70110C0
:201330002DE9F843040014D1002018F03FF910E0204613F0EDFE012808D063E08A0740F1B9
:20135000628101F0FD0101700020B071204613F081FD04F16605687D002853D0697CDFF8C6
:20137000C894022904F1EC0704F59E7804F5B07604F5C67035D0042947D005295DD00629BE
:2013900000F08D800729D3D0092900F0FA800B2900F0C5800C2900F016810D2900F0D58031
:2013B0000E2900F0F8800F2900F03581102900F04F81112900F06781122900F01C81142990
:2013D00000F09281162900F06681172900F08181FC2917D0FD2900F0A081FE2900F0AD812A
:2013F000A2E7287C012809D199F80300002813D01621204617F0F2FF012004E0204613F00B
:2014100033F828740020BDE8F283287C012840F0B08199F80200002800F0F5800021A97132
:20143000FF22FC21204610F035FFA07904F1B80204F1B00119F0AAFD8BE7287C012811D185
:2014500099F8020028B1012184F89410002038607860B87A01286BD1FF220621204610F0F9
:2014700019FF76E704F1E7063078012809D1204616F075F80128C5D10020B87201212974B9
:20149000C0E770780028BDD004F1C70204F1A00104F1D70019F076FD0120307059E7297CB6
:2014B000012940F06A8199F80200002840D0608CE083204613F0CEFC01202870204615F066
:2014D00097FA0121A971397A787C012910D1C00609D5002188F80510D8F8001098F80600AD
:2014F000490811F07FFFA079002119F047FD10E0C00609D5D8F80020DFF8300304F5A173EA
:201510005208214619F0E6F8A0790122002119F031FD002038723873F872B87219E7287CD2
:20153000012806D1F87A012804BFFF22FC2195D069E0204612F032FA012821D10020F87218
:2015500084F894000120287403E7287C012811D199F8020048B1002184F89410012028708F
:20157000204615F045FA0121A97199F80300002810D148E0204615F03DFC2874E88A288353
:2015900040E7287C012840F0FC8099F80200D0B3608CE083DAE6287C012840F0F680387C4F
:2015B000022804F1FD0204D1A179002019F0DEFCCCE6032840F0F280A1791A2019F0D6FC5D
:2015D00000203874C2E6287C012804F20D1140F0F0800878012804F5897240F0F080487809
:2015F000012807D15088009000201388CA78A17919F0B8FCAAE6287C012840F0EF8099F811
:2016100002000028F6D1288B401E288380B20028B6D12221EDE6287C012840F0E38098F826
:201630000900012802D131780F291BE098F80800012826D1002188F80810288D00090090FA
:201650001A20AA8CEB8CA179520819F087FC7DE6287C012840F0CA8098F80900012810D146
:20167000317810291CBF002017F0A0FF002088F80900298D09090091AA8CEB8CA179707826
:20169000E2E7287F73E7287C01283FF461AF204612F0CCFD71E7297C012940F0AB80017B31
:2016B0004A061DD4CB0709D501F0FE0101730123A179707801220CF07DFF47E68A0740F115
:2016D0009E8001F0FD0101730123A17901221A20F1E7297C012940F09F80017B4A0692D5B5
:2016F00001F0BF01017331E6297C012940F0968001788A067FF522AE01F0DF010A070170E9
:201710000AD501F0F7010170F08B0090738BB28B318BA079FFF7BCF816E6A97EFF22204611
:2017300010F0B8FD0EE7FF22204610F0B3FD012067E6002017F03AFF64E6A97E0C2918BF6D
:201750000E29F0D00F2902D01429ECD0F1E7FF22FC21204610F09EFDB8F812000090B8F866
:201770001030B8F80E20B8F80C10A079FFF788F848E620460FF06BFAFFE6204614F0CCF8D5
:20179000FBE6204611F0C2FDF7E6204611F088FD28740121E88A2883397433E6288B401EB7
:2017B000288380B20028F8D1A179222019F0DEFB2FE701208870204611F076F8DDE6288B93
:2017D000401E288380B20028E7D15088009022201388CA78A17919F0C5FB1AE7204614F009
:2017F00062F9CAE620460EF021F9C6E620460EF06FF9C2E6162120460DF02CFEBDE6288B16
:20181000401E288380B20028C7D1A1790123012222200CF0CFFEFCE61721ECE714212046C9
:2018300010F032F8A9E600BF5C4D0020452801002DE9F04F0446A74DDFF8A092A0782A7893
:201850000FF29C28ADF13C0D002800F0A980DFF888A2401F4BD0401E09D0401E00F03381D7
:20187000083800F02B81801E00F024812EE1002000900746064601974FF48B61012202976E
:201890009BA30397404604960DF0E2FC5146102010F04AFA009040F25941019701220297AA
:2018B00099A30397404604970DF0D2FCA08815F077FC00972A7849461020334610F034FA17
:2018D000002840F003815146102010F02DFA40F2664191A3C0F10102009201973A4602922F
:2018F00003924046049201220DF0B2FCEEE01020514610F019FA617800270091012201906C
:2019100092A3029740F236410397404604970DF09FFC6078D8B9608915F04CF9DFF858B36F
:201930000126241D06211323009620465A460FF0F1FCCDF800B03846019740F24341029077
:201950008FA303903246049040460DF081FC1020514610F0E9F9D0B91020514610F0E4F9D0
:201970003C46C0F1010000904FF489610197012202948DA30394404604940DF069FC3B464D
:2019900000932A784946102010F0CEF99EE01020514610F0C9F940F24E4191A302469BE7B6
:2019B0006078002840F09280267AE7798DF83260A27A8DF83170A0798DF83620E37A8DF8A6
:2019D000300000268DF8373008218DF83460677A8DF833600CAA8DF8357030460AF0B8FA78
:2019F0000127A01D06211323A44C009722460FF091FC009440463446019440F2FF310294F9
:201A100088A303943A4604940DF022FC9C49B1E84C1005A8A0E84C100EC980E80E001020D9
:201A300005AB9849984A009510F07EF9C0B208B118F014FB954E0D21304614F0BDFA009003
:201A5000019440F211413A46029481A30394404604940DF0FDFB0D200090DFF83482019698
:201A70002A7823464146102010F05EF9C0B208B118F0F4FA12200090864E01962A784146C6
:201A90003B46102010F050F9C0B208B118F0E6FA81492A781020922310F046F9234600939D
:201AB0002A784946102010F03FF9C0B270B118F0D5FA0BE0204614F003FE07E077491020E6
:201AD00010F032F902E0204609F0B2F80FB0BDE8F08FC046C82600203D7E0100EDEC000054
:201AF00070726F6A6563745F7A65726F2E6300C044657669636520446973636F6E6E656369
:201B10007465642100C046C04E756D20436F6E6E733A20256400C046526573746172742052
:201B30004164766572746973696E672C20256420706F737369626C6520636F6E6E656374B5
:201B5000696F6E2072656D61696E00C04C696E6B2065737461626C697368206576656E7424
:201B70002C20737461747573203078253032782E204E756D20436F6E6E733A20256400C05C
:201B9000436F6E6E65637465642E205065657220616464726573733A201B5B33326D257388
:201BB0001B5B306D00C046C0436F6E74696E756520746F204164766572746973652C2025BC
:201BD0006420706F737369626C6520636F6E6E656374696F6E2072656D61696E00C046C05E
:201BF0004D6178204E756D626572206F6620436F6E6E656374696F6E2072656163683A2084
:201C100025642C204164762E2077696C6C206E6F7420626520656E61626C6520616761692D
:201C30006E00C04647415020697320737461727465642E204F757220616464726573733A71
:201C5000201B5B33326D25731B5B306D00C046C04E616D6520696E206164766572744461D8
:201C700074612061727261793A201B5B33336D25731B5B306D00C046402700202C270020F2
:201C900074BD0100318C00001F8F01004A0D002061B70000B80C0020695D0100DD7201000C
:201CB0002DE9F84FDFF84044A178FF2904BF002017F07CFCA07818F061FA044604F1680691
:201CD00004F5C9753168086804F1900710B10021E18310E0B07B002804BFB07E00280AD1AB
:201CF0003978002904BF2878002804D1207F012804BF608CE0832189E08B4118491C61810B
:201D1000204617F092FB01281EBFDFF8E0030178012904D121890020491CE08361814FF6C8
:201D3000FF78B07E01280DD1B28B6189208919F011F938B1218960894A1C93B298422CD007
:201D5000B08B20E0387801280DD17A886189208919F000F938B1218960894A1C93B29842E9
:201D70001BD078880FE02878012816D16A886189208919F0EFF880B1218960894A1C93B2E5
:201D900098420AD0688892B2904206D04044608180B219F0DBF84044E083287801280DD1A2
:201DB00021896888491C89B2884207D16A792A71002028701346A1790CF0FCFB04F59A7197
:201DD000087920B120890021401CE183608104F12E07B07E01283ED12289B08B521C92B20E
:201DF000904238D1608104F18601204617F00EFCB08C608400212177E183E089618941183B
:201E1000A181B08B218919F0A1F88046B988308C728C01FB0808F08C8A4204BF39898842A5
:201E300002BFB38CF9888B4207D000090090B38CA1795208002019F091F8B07F3870718C9B
:201E5000B980B08CF8802046F18C398117F01AFE0220B07601E0B7F80480E28BDFF890C2D7
:201E7000DFF89092501C00FB08F040F6C41808FB00F100912368D3F80CE07144D960DCF85F
:201E900000E09D499EF800A00B884FEA9A1ABAF1030F15D199F80FC05FEACC7E48BF0023F6
:201EB0000ED45B1C1FFA83FCBCF1010F11BFB4F812C004F59A7EBEF806C00CF2DC5C01E072
:201ED000B4F812C00CFB00FC4FF4C87EBCFBFEFCDFF828A20CF1010CC4F814C00B8084F8F5
:201EF00020204FF01C0BA379A0610BFB03F3DAF80010226801F1080001F1080EC05810611C
:201F1000A379D2F80CC060690BFB03F3ACEB00004EF8030001F10803A0790BFB00FC53F8F7
:201F30000C00906001F10C02A0790BFB00F00C31135C03F0F00343F002030B54DAF800008B
:201F5000A179821C0BFB01F100235352287908B917F02CFBDAF80000A27900F110012879D9
:201F70000BFB02F240088854A079DAF800100BFB00F00844002141742879042814D1A07955
:201F9000DAF800100BFB00F001F110021031135C2A7A43EA82030B54A279DAF800000BFBFD
:201FB00002F2024420205074DAF80000A27900F112010BFB02F200238B525149A2790968C2
:201FD000520101F11403D4F814E053F802C00CEB4E0C43F802C0B27E022A08D1A2795201D7
:201FF0009E583B7808FB036601F114039E5099F80F20D30749D5A2790BFB02F200F10803FC
:2020100008309E58A6F5A8669E5001F11406A27923680BFB02F282589A600098121A1A612C
:2020300001F11402A0794001135803F5F66333502879042807D1A079400101F1140513587A
:2020500003F561632B5001F11400A27952018058C4F834012B4ABE88176B3868A579464378
:202070006420B6FBF0F601F11C036D0108FB06F0A0F596605851A07901EB401022490B7846
:20209000012B1CD10121C1721CE02879A37904280CBF4FF4AA504FF4E66001F114025B01E8
:2020B000D258BB8808FB03F3101AA3F516739842D0D30821204617F091F9012011E0916AB5
:2020D0004A78C272A179DAF800000BFB01F281182268516007200D490870204614F0C8FF1B
:2020F0000020BDE8F28F00BF684E0020784F0020084F00205C4D00208C2800205028002062
:202110005428002058CE0100734F00206F4F00202DE9F04F0546C24CA97860690027ADF1CF
:202130001C0D0A290FDC0A2900F0B580002900F0CB81491F00F0BD81491E00F08C81C81EAB
:2021500000F07081EBE10B3900F08F80C91E00F08280491E0DD0481E40F0E181227817F0C9
:2021700059FC002800F07581104604210AF08AFF6FE12E4628B143681BB1A88839460A46DB
:2021900098476078002863D0B08814F0D3FD051C00F0C581B07A400811D36B797BB1012B28
:2021B0000DD0F068800A0AD203F001033A460097A81D194613460BF0C9FF002843D1207A50
:2021D000022802D1B07A00093DD3B6F804806D790C2018F021F906F10809061C00F0398175
:2021F000A6F80880B5723B463360B9F1000FF77209D04846082117F09DFC706020B93046FD
:2022100018F01AF925E17360A069002808BFA66102D00368ABB90660304618F0DFFA4A46CD
:202230002946404608F09CFA6069002800F011814368002B00F00D81394640460A46984710
:2022500007E11846E5E7B088032118F07BFE66E1B08805211CE0002800F0FB804368002B75
:2022700000F0F7806A780221D7E018F089F8002800F0EF80606948B104683CB128690090DF
:2022900069892A7B6B7BE81CA047E2E06889012118F058FEDDE0B8466F78002F40F0AD8065
:2022B000A9794908C0F0A98002A84146082218F005FBA88814F03EFD071C09D1227817F052
:2022D000A9FB00287AD0104604210AF0DBFE75E06869002854D0064641460622113017F0D5
:2022F000AEFCC24630B330464146062217F0A7FCE0B9307C06F11109D346464600F001007E
:202310000590761CF6B289F80060CDF800B005994846524653460BF019FF10B9002EF0D160
:2023300004E01EB1BAF1010F02D006E04FF0010A46466E61BAF1010F22D0686950B30646F5
:20235000307C062206F1110100F001008DF80E0002A817F0BDFD787906F11108012805D1A1
:2023700007F10C00B91D062217F0B2FDB81D4146062217F0ADFD307C40F00200787109E0B0
:202390007879B91D062200F001008DF80E0002A817F09EFDA879C00839BF387900F0FD00EF
:2023B000387940F002003871A879000939BF387900F0DF00387940F020003871A9799DF87E
:2023D0000F20C1F3800010438DF80F00080905D39DF80F0040F008008DF80F0002A8294631
:2023F00005F086FB5FEA000803D1A88813F02CFF02E0A88815F0CCFC606950B3436843B388
:20241000A8886A7801219847687810BBA87940081FD36069032142464368A8880FE7C04647
:20243000600500203B460093E978281D0DF1110201F001010BF08AFE58B99DF811104800B7
:2024500005F10C0200EB810025300421C0B217F038FA012763E0A88815F09AFC18F06EFD2E
:2024700000285CD1E07A012814D0207B01280DD02D4C3D4614F8010F012803D1284609F073
:20249000BFFF27706D1C062DF4DB0CE010F0E0FF277308E017F0A7FD394604F12000062298
:2024B000E17218F00BFA502017F0F0FB13F02EFC35E0687898BBE8786A892B7B291D00F0A6
:2024D00001000AF025FC2AE0687840BB18F032FD054618F02BFD044618F024FD8DF8100031
:2024F00010212A46022017F0ECF903201021224617F0E7F90420012104AA17F0E2F99DF80F
:202510001000012803D09DF81000032807D1012015F09EFE02460620014617F0D2F9384630
:2025300007B0BDE8F08FC0467F0500202DE9F84F040004BF002017F039F804F1500941F605
:202550002300D9F8006030800021718018F0E6FC00F57A60B0600221822030737173B06828
:20257000217E2061B1730020F073D9F80410087D022804BF002017F019F8D9F80400007DA3
:20259000012802D10020002104E083280CBF0620022020213074717404F1240BD9F8040089
:2025B000DFF878834178480615D5D8F83410486902689BF80500511C00EB4000095A718293
:2025D000607DC10604D5E07F40F04000E07702E040F04000607506F158050020287104F11F
:2025F00030009BF81A10890001F00401297128614FF01E0A607DC10644D506F1300030625F
:20261000D9F8040041788A060BD5617D01F0FE016175407810F0030F03D1E07F00F0FE001D
:20263000E077607D15F052FD0246A275521C307CC0F38001002392B200F0030014F0BEFE3B
:20265000A0831E23A08BE27D00F5FA7100F5FA7090FBF3F34A430AFB13006283C0B208B197
:20267000C0F11E008018A183608380B2B168C03001EB8001A9600220E871E17F41F0080116
:20269000E17714E000203062607D40F001006075D9F804104A78510744BF40F00200607540
:2026B000607D15F013FDA0750020A860E871A07D217D60F3050106F18800217501700321C4
:2026D000627D8170427006F128079BF81A10890001F0040141F0030181709BF81B20D20040
:2026F00002F00802114381700021C1708160BBF81C00C0F30B00ABF81C00D9F80410CA7DDE
:2027100040EA0230ABF81C000022617D01F0FE0120460BF0A7F940F61200B0830021F1838D
:20273000A020706207213970607DC1064CBF00200220787041F62401E07D788039810020C2
:202750007881B168608B01EB800139610220822139757875002094F8211001F03F01B975C9
:20277000F875D9F80410887D012818BF022804D100F07F00401E002104E083280CBF062085
:202790000220202179763876D8F8340041690A689BF80510501C01EB4101405A7883002111
:2027B0006961D9F80400417811F0030F1BD016F02DF86861D8F818000078C1074CBF10215B
:2027D000002182074CBF2022002243074CBF4023002300074CBF802000201143194301432F
:2027F00041F00F01297600206876D9F80410887C00F0030068769BF81A10890001F00401F5
:20281000084368769BF81B10C90001F0080141F01001084368764249087838B1687E40F089
:2028300040006876287E00F0FE002876E07F15F04DFC84F8200020460BF008FBE07FC10665
:202850003AD5D9F8040094F820204178521C88074EBFD21E9BF81F008218387EC0F38001CF
:202870000023D2B200F0030014F0A8FDABF80000BBF8000000F59671C1F11E0291FBFAF16A
:202890000AFB012A8BF804A0D9F8042051788A074CBF00214FF4FA710818ABF80000ABF842
:2028B0000200BBF800209BF8040039698218C03201EB8201022001E000210020E961E87613
:2028D00004F13000A862D9F804104A78687E510747BF04F1380140F02000124900F0DF0026
:2028F000E9626876022294F82000A17F60F30501A17740F60B00B8840021F984F96229702F
:202910006A7094F845006880D9F804104878810744BF012068800020BDE8F28F58CE01006E
:20293000784E0020D04700202DE9F84F0E46700688B026D5DFF84823107800210AF0F8FE35
:2029500004001ED0DFF83C0301688847054617F05BFD6168884204BF40F2014018F0DAFAD8
:2029700000202072201D11F091FCC7490A6828469047204617F042FBFF224321204612F06C
:2029900011FAF0070BD517F03FFD28B100218160BE48006800B1804786F001006CE1B007C6
:2029B0000FD500210023069105910491039302910191009101223C2018F0A8FA86F0020030
:2029D0005AE11E277007DFF8C88240F19F80B1480078002107918B460AF0AAFE0446AE48A2
:2029F0008178FF2904BF002016F0E0FDA07A17F0C5FB0546606D807A95F82E91022818BFA0
:202A1000032805F5947A06D108F10D0018F07AFA08B908F1070B5146484618F06FFA88B37D
:202A3000606D807C002818BF012804D14146504615F070FD04E052464946404611F07CF82B
:202A5000FF283ED007FB00F908EB090706225146F81D17F03DFA18F8090040F00209F81DB8
:202A700007900622616DC87A00F0010085F82E0107F1010A606D00F10C0105F5947017F007
:202A900027FA1EE05146484617F0D2FAC8B152464946404611F050F8FF2812D0474308EB1A
:202AB000070404F10D0018F02DFA40B904F10D0018F028FA002804BF607F012801D149F0A7
:202AD000020905F12C004B46017806914289120905920122698C0491C0880799029140082B
:202AF0000390CDF804B0CDF800A00020A97918F00DFAD5F89C0169498842A8790CBF002111
:202B100001210EF039FE86F00400B5E030060FD50021002306910591049103930291019164
:202B3000009101223B2018F0F1F986F08000A3E0F0045BD55A490C6808F10D0018F0E2F9E7
:202B5000002842D108F1070108F10D0018F0D2F93BE0606D4178480704F13E0523D5287890
:202B700002281EBF0328687801282DD1697804F13802404610F0E0FFFF2814D0784308EBDE
:202B9000000909F10D0018F0BDF960B909F1070109F10D0018F0AEF9062209F1070104F167
:202BB000380017F095F92878022818BF03280BD108F10D0018F0A6F930B9062208F10701D1
:202BD00004F1300017F084F92468002CC1D135484268354800784FF4805113F079FC10B189
:202BF0008E200FF019FB86F4805045E0B00505D517F0D4FC2D4901200860FEE7700504D5FD
:202C100008F031FF86F4806036E0700405D581200FF002FB86F480402EE0B1042BD5244CB4
:202C3000206810B1002016F0C1FC4FF0FF3020600020204C10F0FEFA216851F8202F684617
:202C500090471D49086B4A6B24681C4B0090019202936B46C86A1A4A0392ADF81000256836
:202C7000184A19491948A8471949086005F0B8FB86F4005000E0002009B0BDE8F08F00BF58
:202C900099280020B00B0020B40B0020204F0020A42200209A280020684E0020974A01007A
:202CB0006C280020784E00206E4F0020FC002043044F0020F04E002090090020F9A3010007
:202CD00009A4010098260020FC0C002088490020EC4E0020F0B5B14CB1492046ADF16C0DCC
:202CF00012F02AFDAF4D0021284618F0FFF8AE48AF490560AD480DF083F8AE4987A60860C5
:202D100070B900200090019040F2312102900322039086A3049030460CF09AFA18F0E2F8C6
:202D3000A548A6490DF06CF8A54D286078B900200090019040F2392102900322039084A35D
:202D5000049030460CF084FA18F0CCF828689D4917F036FC70B10020009001904FF410713E
:202D700002900322039082A3049030460CF070FA18F0B8F800250D200095934E0190934878
:202D900032222B46314612F043FAA3490E2732222B4608608E4800953146019712F038FAAC
:202DB0009E498C4F15232A46086010208A4900970EF0BAFF8949102002232A460EF0B4FF98
:202DD00019A8009001268DF864608DF865604FF480628DF86650824F8DF8676033461020B2
:202DF00039460EF0A1FF0DF1650040F2024200903346394610200EF097FF0DF1660040F2EB
:202E1000034200903346394610200EF08DFF0DF1670040F2064200903346394610200EF086
:202E300083FF704910204FF0FF320EF07DFF6E4910204FF0FF320EF077FF16F08FF820783D
:202E50000EF03EFB20780AF0DBFC20780CF0FEF866480BF037FE66480BF01AF965480BF0F6
:202E7000C3FC05A8294628220FF094FA62490FA828220DF0EDF92846314605AA06F0FAFD80
:202E9000304605AA014606F0F5FD2846314605AA02F09CF9304605AA014602F097F9284657
:202EB00028210FAA02F0F8FC3046142105AA02F0F3FC5249524A10200EF036FF217850203C
:202ED00015F05AFE4F49024610200EF02DFF2178502015F051FE4C49024610200EF024FFC0
:202EF0004A491020FB2240F648030EF01DFF484910200EF019FF4FF6FD7015F0C9FE217859
:202F1000502015F039FE0095034604224149019510200EF009FF1BB0F0BDC04670726F6A62
:202F30006563745F7A65726F2E6300C04572726F7220696E697469616C697A696E6720621E
:202F50006F617264204C45442070696E7300C0464572726F7220696E697469616C697A6986
:202F70006E6720627574746F6E2070696E7300C04572726F72207265676973746572696EB0
:202F90006720627574746F6E2063616C6C6261636B2066756E6374696F6E00C0BC26002069
:202FB000C0260020BC270020C4260020EC2700207C0D0020D0260020C8270020580D002068
:202FD000CC26002051F800007D0901005026002074260020FC0B0020CD480100D57D01001F
:202FF000A165000021920100DD960100000E0020F00D0020F80D0020B4BB01000D9901000C
:20301000E80D0020518801103181011021B1001055100100B17E0000D4260020D82600202F
:203030002DE9FC47B44CB54D2678DFF8D482B54FB549002E4FF4A05900F01F81072E14D045
:20305000092E18BF0A2E00F01A810B2E18BF0C2E00F029810D2E00F0EC80112E5CD1AB4AB3
:20307000107800210AF064FB002878D0C5F80080426D5378016DA64CDFF89882DB065ED5B2
:203090000B4641F2044EB3F802C0F4451FBF5E8B7645B3F832A0F24506D041F20A4EF445D4
:2030B0001CBF7645F24502D1A7F800E04FE0002440F2FE364FF0180C0CFB04FC03F1020EBA
:2030D0003EF80CE0A7F800E0BEF1010FF2D0BEF1000F12D0AEF1020EBEF1010F0DD9BEEB21
:2030F000060E1AD04FF48066BEEB060412D04FF44066A41B01D0A41E012C40F2DE80241FC9
:20311000FBD040F2FA36A41B00F0F180641E00F0E680E11E00F0D980A7E0B3F800C040F60A
:20313000010EF44540F0C980641C022CC2DD57E0981C20F80C900FE001680A710CE0488E3D
:20315000388041F20441401A01D0801F01D12C6046E041F206403880C5F8008040E06E499C
:203170008978FF2911D0C5F8008008461C226B4B50431A68941C235A3B8013F47F4FF4D020
:2031900040F204441B1B012B654976D94FF47F741B1B15D00A3B012B17D940F6F6341B1BFE
:2031B000032B84BF5B1F012B12D99B1E012B64D940F2FD341B1B0BD05B1E012B05D909E0FB
:2031D000921C41F20143135202E0941C24F80090296005E0002016F0E9F98520FDF7D8FE32
:2031F000BDE8FC474F480078012109F04BBF4E4C4E4A25684E4800680023CDE9002355F89D
:20321000089F4C4B0222C8474B49088035E0092E4ED14A490A685089002849D04849087876
:2032300011F044FE0021002017F058FE0020207023E04888388002280DD940F20442801A40
:203250001BD040F6FC72801A05D0083815D04FF47F72801A2CD1887B801CC2B2B52AA8BF17
:20327000662088730020488007E0002016F09EF98420BDE8F647FDF78BBEBDE8F38748887F
:20329000388010F47F4FFAD040F20442801AF4D040F6FC72801ABAD00838EED04FF47F72FA
:2032B000801AA4D004E04888388010F47F4FFAD0002016F07BF98520DBE7807B012818BFEC
:2032D000042801D0A7F8009046E7807B01287FF42FAF981C41F2024120F80C103CE75278C5
:2032F000D00647BF0022886D0022C86E24E7002016F05CF98320BCE76F4F0020204F00203A
:2033100005A80100504F0020FC26002099280020A908000091630000684E002050280020FA
:20333000394500006E4F0020F04E002002000080EC4E0020F14A0100424F0020582800205B
:20335000714F00202DE9F04F09AFADF13C0D08900A92388809911E46ADF81800101C08BFE7
:20337000002000F07581017800274FF0010B401C4FF0FF39B846DA460A9061E1252940F001
:2033900056810178401C0A902D2918BFADF8068004D10178ADF806B0401C0A9030291CBFAC
:2033B0004246434604D10178401C5A465B460A902A29CDF800804D4617D1049330680A9B80
:2033D000CDF80890C01C20F00300001D306050F8044C1978002C009403F101000A9018D57F
:2033F000ADF806A06442009413E044460AE0600000EBC4004018A0F130040A9801780094F6
:20341000401C0A90302901DB3A29F0DBCDF8089004932E2929D10178401C2A290A9011D15A
:203430003168CDF80880C91C21F00301091D316051F8045C002D48BF454601782B46401C37
:203450000A9011E0454643460AE0680000EBC5004018A0F130050A9801782B46401C0A901B
:20347000302901DB3A29F0DB02930AB1224604926C2904D04C2918BFADF8048004D101785F
:20349000ADF804A0401C0A900BA8CDF80C800FAB07906429059300F0828069297FD0BDF8DB
:2034B00018C075296DD0782969D06F2965D070294ED063293ED0732922D00A98401E0A9029
:2034D000099801281AD966490C68B5F1FF3F03D0A84288BF6D1C05D86FF00041814294BFF8
:2034F0000D1C099D029508A80AA932466B46A04709993F18091A0398099165E0454617E0CB
:203510003068C01C20F00300001D306050F8040CBCF1010F014608B94FA00146079116F076
:2035300055FE0390B5F1FF3F4FD0A8424DD9039528464AE03068C01C20F00300001D30601E
:2035500010F8040C8DF82C005D46039558463CE0082035680490E81C20F00300001D306080
:2035700050F8041C082210230FA80FF045FC401E079040210170079823E0082302E01023D6
:2035900000E00A233068C01C20F00300001D306050F8041CAA42BCBF2A1C04920DE03068AA
:2035B000C01C20F00300001D306050F8041CAA42BCBF2A1C04926FF009030FA80FF01CFC7B
:2035D00007900599081A0390009C241ABDF8065000945DB906E008A8202109AA15F08EFA4B
:2035F0007F1C009C641E0094F5D50398401EB0F1FF3F03900FD1BDF8060001281CD10098F0
:20361000401E009018D408A8202109AA15F076FA00987F1CF4E70798017809AA08A815F019
:203630006DFA0798401C079003987F1CDEE708A809AA15F063FA7F1C0A980178401C0A9015
:2036500000297FF49BAE089808B14146017038460FB0BDE8F08FC046286E756C6C2900C0F1
:203670001CC00100BB482DE9F84F0025BA4CB849056094F8E200002800F06581012800F0E7
:203690002F81B64E02283CD0032840F05C8151F8250CD4F8B8100029A0F5C060C4F8D4007C
:2036B000B8BF49420028B8BF4042814226DA4FF08057D7F8A4014568B4F8BC0030214FF4E1
:2036D0007F42082300903046A847D7F8A4014568B4F8C00004214FF4F802122300903046CF
:2036F000A847D7F8A401B4F8D070456820214FF440620A2330460097A847012584F8D850A5
:203710001CE151F8258C16F049FF2F4600B901273946934F38680028FCD0B146012609F1F1
:203730000409D9F82CA03E6009B116F03DFFCAF30720C4F8BC0016F031FFAA4600B9B24602
:203750003B68002BFCD0D9F800B0BAF1000F3E6001D016F029FFCBF38440C4F8C00016F0E3
:203770001DFFAA4600B9B2463B68002BFCD0D9F81C90BAF1000F3E6001D016F015FFC9F366
:203790008120C4F8D000B8F5C061C4F8B81000F09C8094F8D80068B9C4F8D410D4F8C000DD
:2037B000C4F8C800D4F8BC70C4F8C470D4F8D030C4F8CC30D4F8D400D4F8BC30002854BF76
:2037D00002226FF0010204F1C8010F6800EB40008018421000EB927207EBA2000860D4F852
:2037F000C810C4F8C43000291CDD1E293CDDD4F8CC0030B93429B4BF15391E21C4F8C8103D
:2038100025E02A29BABFD4F8C8000B381E20C4F8C800D4F8C4003F28B4BF401C3F20C4F84D
:20383000C4001FE0D4F8CC00032812D011F10B0FC6BFD4F8C8000B30301CC4F8C800D4F804
:20385000C4000028C4BF401E051CC4F8C450032508E011F1150FC6BFD4F8C8001530301CBA
:20387000C4F8C800C4F8CC504FF08057D7F8A401B4F8C43030214FF47F424568374800939E
:203890000823A847D7F8A40104214FF400321123456832480096A847B4F8C860D7F8A401C8
:2038B00004214FF4F802122345682C480096A847D7F8A40120214FF440620A23B4F8CC601C
:2038D000456826480096A84701E084F8D85040F2FF50404502D8801C40452FD2082030E079
:2038F00051F8251C1F4F4BF2F5204843060A3868C0F3814001280CD11B48006800688047BF
:2039100013F0F4FB16F056FE3111C010484306EBE03694F8E50030B91448006820F07F40BA
:203930003618760801E084F8E5501148310C0660012741600F4D8760287808B90B2000E0A5
:20395000052084F8E40005F037FABDE8F88FC0462D400C402C500C404C04002000A00C409D
:2039700000800C40B43F0050EC010010102009403C600C40DDBD0100C2480278112A00D0A0
:2039900070472DE9F047C04A1078002109F0D0FE04000AD1002015F009FE002015F006FE65
:2039B000BDE8F047FF20FDF7F3BA04F14C0898F8000008B90121E172451C88F80050E9B280
:2039D000E07DD8F80490814209F1400A24D299F80E00401C89F80E00D8F808104A7AD9F812
:2039F0000810520802F0010282F00102101889F80E00A08B01EB8001C9F80810627DD306FB
:203A100009D5628B98F8003000FB1320C03001EB8001CAF8201032E104F1280609F17407E3
:203A30004ED1A07F3875E17F7975D8F808205278930710D5E27FD30604D5C01E387501F06D
:203A5000EF0179750020386089F873000022797D01F0FE010EE1910607D4F08B00B1F07EC9
:203A7000F875F08B00B1306AF861D8F808004178C8070BD5F18B00291CBF306A002805D053
:203A9000F861B07E884238BF0146F975E07FC1060CD5D9F83800317800EB8100C9F83800FB
:203AB000A18CC03100EB8100022101E000200021386089F873100022E17F01F0FC01D9E062
:203AD000D8F808104978CA0716D5787D397D00F0F700891E01F03F0182075CBF891D40F08D
:203AF0000200420644BF491E00F0BF00787539750020F861F875C2E0A28C2D1AD9F83800B2
:203B10008907EDB200EB820075D5012D41D1C9F83800A07F00F03F00A0773875801EE17F66
:203B30007975387501F0F7017975D8F8082053785A0704D5801F387501F0FD0179750023BA
:203B50003A7DF17E9AF8000002F03F028A18521CC0F3800192B200F0030013F02FFC00F5CC
:203B7000FA70A0841E21A08C90FBF1F18AB2797D01F0FE01204609F075FF002189F87310B5
:203B9000F08B00B1F07EF875F08B00B1306AF86175E0022DC9F8380026D1E07FC10706D579
:203BB000387D811F3975787D00F0FE00787500233A7DF17E9AF8000002F03F028A18521C04
:203BD000C0F3800192B200F0030013F0F7FB00F5FA70A0840022797D01F0FE01204609F08B
:203BF00041FF707FAAF81A00707F401C451BE8B2012812DD07E0C9F83800E17F707F451BDE
:203C1000CA06E8B209D5A28CD9F83810C03201EB82013960022189F8731080B3F969F27EDF
:203C3000E37FA57F0A445908FA614FEA410AD8F8081049784A0748BF2AF0020A890748BFA2
:203C50002AF0080A012807D1307FF875002139602AF0100A89F87310504614F037FA05F059
:203C7000C00500F03F0005433D7587F815A000220AF0FC012046BDE8F04709F0F3BEBDE868
:203C9000F08700BF6F4F0020992800202DE9F84306460D46707801071DD4D6F80310B44871
:203CB00021F07F41203981423FBFD6F8061021F07F412039814228BF112033D2B01DF11C41
:203CD00088425CD3B07A002818BF012803D0022818BF032853D1B07C002818BF012803D03F
:203CF000022818BF03284AD1307D012818BF022803D0832818BF032841D1707A10F0070013
:203D100070723CD03078012109F012FD04000AD1002012F0C3FD044616F0C6FD844214BF66
:203D300007200D2021E104F1540100200E606072227A012A08BF0C20F4D0E075727A012390
:203D500083401A4208D0E27D521CE275D2B2012A04BF00F125022276401C0328EEDB7078DE
:203D7000C20619D5317D012909D1102811D012280CD0132804D0152804D01D2804D09FE0E4
:203D9000002007E0042102E0012003E00221A17360E00320A0735DE0FF22A273307D02280A
:203DB0001EBF727802F003000328E8D01307E6D408B19006E3D4520707D516F10C00DED084
:203DD000F07A002818BF01287AD100206075E077707810F0030F26D1207D00F03F00207558
:203DF0007078820605D44868002804BF8868002801D018216175707881060DD4307D83282F
:203E100018BF032804D1182001216075E17703E0607D40F0010060757078410716D5E07FF4
:203E300040F0020011E0217DC0074CBF0120022001F03F0141EA80112175182060750921E2
:203E5000E1777078410701D50B20E077207D00F0C000A07796F913007F2806BF45480078FB
:203E700010F074FF04F12907387045B14248416B48693978026801EB4101505C2870B07A5E
:203E9000DFF8F880DFF8F8903E4D002818BF012809D17875B07AC10758BFC8460622414624
:203EB00004F130002FE005F10D0017F02BF8B8B1B07AC10754BF4946414616F0B9F808B995
:203ED000122052E0B07AC10754BF49464146062204F1300015F0FCFFB07A00F0010006E005
:203EF0000622E91D04F1300015F0F2FF03207875B07A00F001002870B17AC80758BFC84687
:203F100006224146681C15F0E3FF7078410729D5B07A022818BF03281BD1F17A06F10C0297
:203F300001F0010128460FF007FEFF2811D01E214843054405F10D0016F0E4FF48B9E91DFE
:203F500005F10D0016F0D6FF0120B8750622E91D04E0F07AB875062206F10C0104F1380023
:203F700015F0B6FF012060720020BDE8F28300BFE0FFFF00714F002058CE0100344E002004
:203F90002C4E0020A422002010B54FF4DF62234923480CF05DF923480021017001220223DA
:203FB000027243760322204904230A70CB700521417707231D491E480B7008240C72062239
:203FD00009210270017210BD2DE9F041194A1A493820136854689568D6681769D2F814C000
:203FF000D2F818E0D2F81C800B604C608D60CE600F61C1F814C0C1F818E0C1F81C80203202
:204010002031401EE5D1106853689468D26808604B608C60CA60BDE8F081000060C701005B
:204030004804002151030021C1030021980300217403002150C0010000C000212DE9F04716
:20405000DFF8AC916B496C4E89F800000922002008600D2369484FF48C7102704380818043
:2040700067480660B77E67480770FF2FF17E417008BFFF29327F8270737FC370B57F057111
:20409000F67F467114D1FF2A08BFFF2B10D1FF2D08BFFF2E0CD15C490A7802704B784370F8
:2040B0008A788270CB78C3700A7902714979417156490278564D574EDFF85C810A704378D2
:2040D0004B7082788A70C378CB700279534B0A7140794871FF2028706870A870E87028710D
:2040F000687100204E490880776B4E49787808703A784D491A70B87808707A6910794B4A3C
:20411000411E1170F8784A4988F80000B869086008B915F04BFAF869464C206008B915F05F
:2041300045FA2068DFF810A101688847226852F8041F5046884741484149CAF82000CAF8D5
:204150002410386A3F49086008B915F02FFA786A3D4C206008B915F029FAB86A3B490860B8
:2041700008B915F023FA05F031FD07280CD109F043FD99F800004FF4804108F083FFBDE830
:20419000F047002015F012BA3148016888472268074610688047216851F8042F0020904724
:2041B000F16898F800000A882A4B2B4902431A8038460A6890470C21284816F08BFE284849
:2041D00000680E2116F000F9284616F07FFE16F079FE4FF6FF7223488280002101604FF4E3
:2041F000005199F80000BDE8F04708F04BBF00BF6E4F0020044F0020B63F0050604E0020CD
:20421000084F00202C4E0020E81200503C4E0020344E002058CE01006C4F00207B4F0020FB
:204230000C4F00206D4F00206B4F0020724F0020F04E0020F44E00207C4B002029A40100E7
:2042500049A40100F84E0020FC4E002060280020B00B0020544F0020B40B0020F84D002006
:2042700070280020142800202DE9F84FDFF8B4920F460446F80B80F00981A54EDFF8848234
:20429000B80F80F0BA80B80880F0AE803809C0F02F81082016F0A6F9002840F0A0808020B9
:2042B00016F0A0F9002840F09A8068460BF0E6FE012803D10098002800F091809048007842
:2042D000002840F08C8000250124E8B215F038FF48B1837A3BB1847290F9090004FA00F0F2
:2042F000C0B213F0EDFC6D1C032DEED345460320287405F1AC0016F099FA834801680023FA
:2043100098461A46036050F8081C804940F8088C05F1340016F09EFA404607F094F9306881
:20433000006B8047A968401A010BA869C1F1FF3282422CBF08444FF0FF30A861287F20B1E6
:20435000E868A969B1EBC02F25D915F0DFF8414600B12146081C1BD06E4840F60901018061
:2043700043464380417B04F00F0221F00F010A434273017B03F00F0621F00F0146EA010225
:204390000273436015F0CCFF418811F4406FFBD02C774346AB6112F0C7FE5F484446414626
:2043B0000460022014F010FE022013F055FC112009F02AFF287818B96868383016F05EFA85
:2043D0005648007810B90E2009F01EFF687F18B16C77052013F040FC514868612C740FF0B2
:2043F00035FE27F0080783E007F0A2FE45467435286808B927F002077AE016F021FAB34641
:204410008246DBF85400016804208847D8B1207CC8B1454608352868A8B10646DBF80000D3
:20443000E568006B8047801BE060000BE060A84202D240194008E06040F6C41181422CBF6F
:20445000B0F5FA7FE160504616F038FD13F086F990B1A56920466FF4807100224FF00073BD
:20447000A847464606F16C052868002808BF47F0020701D00FF0EAFD2046646900214FF040
:2044900080630A46A04727F0005731E016F0D8F949460E6846B306F1280106C90A234FF043
:2044B000E0450B40154008BF002B1DD106F1280191E8300006F1280393E8060006F12803B9
:2044D000AA43A14383E8060016F0F8FCB16869B1002D08BF002C09D030692246B6F93C1068
:2044F000B4682B46A04701E016F0E8FC27F4804727B148463946503016F0CCF9BDE8F88F2F
:20451000711D0020D81B002014100440494601008C01001018270020000004604EBF010064
:20453000A1D50000581C0020A2488078FF2800D170472DE9F84F15F021FE054605F21710E6
:204550000178012908BF417800F0A78005F17400817B022903D105F174010020887305F52C
:204570009274E18911B1207B08F08CFD6889DFF848C2DFF8489228819CF807209CF80A0058
:204590009CF80C109CF80B709CF80D3000EB02088844B84405F58D779844BB885B1CBB80EF
:2045B0003E8846443E80B7F802E08644A7F802E04FF01C0E2368E3B1D9F8006095F806B005
:2045D00006F10E0A0EFB0BFB0E361AF80BA033F81AB0C34423F81AB095F806A00EFB0AFA8B
:2045F00016F80AB003EB4B06B6F84AA08244A6F84AA0002A04BF9CF80B20002A05D10029E9
:2046100004BF9CF80D10002926D02989E88941180026A9812E74287F012804BF688CE88397
:204630009CF8010068B10121297705F174018878002804BF887B002803D1087F08B9688C69
:20465000E883207D002832D0022804BF9CF80B00002827D1002129E0EA8340B1297F012615
:2046700000200129287406D1688CE88303E0F888401C0226F880A8892989814206D0884269
:20469000CED2081A41F2AB029042C9DA287C08B1052901D0082100E03E212846BDE8F44FD9
:2046B00014F09CBE9CF8090008B10221217544489CF80F2001682868D30709D5DCF8102079
:2046D000C26001F11400A97949010022425010E0AA791431520189582161D9F80020A97961
:2046F00002F108030EFB01F15A58C2600020E8832877344841690A78900703D59CF80E00FA
:20471000802800D1812005F1740A8AF800002846FCF706FE01284AD0012128460DF0B0FE96
:20473000284614F007FCFDF7BBFA01283FD001F0D3F9DFF89490D9F80000C0B3B9F8040062
:20475000AA7990421CBF4FF6FD7188422FD11F48007A15F069FE040029D02670A87960801B
:2047700095F83910217195F8960160719AF90010A171A4F808807888608115F045FE0500C5
:2047900005D1FF204FF0FF312073216109E02878207316F0C3FB0146A86816F08BFB800845
:2047B00020612046D9F80010BDE8F44F0847BDE8F18F00BF684E00205C4D002050280020CF
:2047D0005428002058CE010014280020940D00202DE9F04F8946804609AF99F800003E79FF
:2047F0001C4600254FF0FF0AADF11C0D02283F88059206D1D9F80400008842F60211814249
:204810006CD0484610F0F8FE58A3069008B3401E0ED028460090019040F24A21029003225D
:2048300003904BA3049046A00AF012FD0A2083E05FA00090CDF8048040F2452102940122AE
:2048500003973FA004960AF003FDDFF818B214200FE059A00090CDF8048040F23621029486
:204870000122039736A004960AF0F2FCDFF8F8B12820B84214DD3E19B0420BDBD9F80C0054
:2048900005992246C0190BF0E3FCDDF818A0ABF8006013E0284640F2552149A30D2504E0B4
:2048B00028464FF414714FA3072500900190029003900322049022A00AF0CAFCBAF1FF0F5A
:2048D0000AD06748006838B106682EB10699059BE4194046A2B2B04728462DE0FE2E0CBF22
:2048F00049A650A6484610F087FE009040F21521CDF80480012202964DA3039510A00495E3
:204910000AF0A6FC009703200190059A23464946404610F0A7FB0646514807685EB957B16E
:20493000786840B1484610F067FE2246059B7C6801464046A047F0B207B0BDE8F08FC04680
:20495000646174615F736572766963652E6300C041747472696275746520776173206E6FF0
:204970007420666F756E642E00C046C05772697465417474724342203A20257320636F6EE6
:204990006E48616E646C6528256429206C656E28256429206F666673657428256429206D2C
:2049B0006574686F64283078253032782900C04653747265616D00C0537472696E6700C072
:2049D000496E76616C69642076616C7565206C656E677468207761732072656365697665B3
:2049F000642E00C0416E20696E76616C6964206F66667365742077617320726571756573D8
:204A10007465642E00C046C02D20726573746F72696E6720626F6E6465642073746174655E
:204A300000C046C02D204F54412077726974650057726974654174747243422028434343E8
:204A500044293A20706172616D3A20256420636F6E6E48616E646C653A20256420257300D6
:204A7000700D00207A0D0020760D00202DE9F84F050046D0DFF8509299F80000092818BF75
:204A90000A2804D00B281CBF0C280D2801D1212018E1A878002108F04BFE040008BF4220CE
:204AB000F6D0A8788949087004F14807F868417801F01201022902BF786900280C2012D052
:204AD000607AF0B1A07B012804D1B5F8030008B1812816DA6878402813DA20460BF006FC98
:204AF000B86808B90720EDE0BD61287801281BD1A07B00281CBF0128042815D17448007871
:204B100008B91220DEE073494A78824208BF0920F8D004F1220004F13801427F802006F03E
:204B3000A3FF08B10B20CDE0687808B91120C9E02878694EDFF8A4A1DFF8A4B1012840F0BF
:204B50008980207A0021012821734FF00A0811D19BF80000402112F0DDFFB5F8030008FB0C
:204B700000F1402014F0C4FA0100E0D1B96968794871A6E001202072E17261730BF04CF805
:204B90006060DAF800008047564A0146106802E06268426000680028FAD1084631688847EE
:204BB000616851484861F8684178C80605D5204601F0F6FE01000BD084E00020608415F085
:204BD000FBFB84F821002046FDF7B0FC010079D1F8684178C8071CD504F14206B188002969
:204BF0001CBF3868002814D032788A4211D20F2014F03AFF68B1F86801788DF80010B0889A
:204C1000ADF801000F2031788DF80310694614F0EDFC99F80000002853D1344908780028D0
:204C30001EBFF868417811F0030F1CBF304814F00BF9112089F8000001212172B5F80300E9
:204C500008FB00F1402014F053FA01003AD100F043FF36E0207AA8B3DAF800008047054672
:204C70009BF80000402112F055FF0020207215F013FD012804D015F0C7FB6168884217D1D4
:204C90001C4A1D481368006853F8384F0021A04740F2014016F03EF9184919480860012180
:204CB0009BF8000008F0EEF931682846884708E0204613F0D7FD316828468847204615F036
:204CD0009DF90020BDE8F28F6F4F0020982800207B4F0020684E0020B40B0020B00B0020B0
:204CF0006E4F00206C28002075610000784E0020CC470020F04E0020EC4E0020204F0020DD
:204D1000916300002DE9F04F8246DAF80070DAF804600C465FEA0208ADF11C0D14BF00219A
:204D30004FF0FF31DFF84492484615F08DFA002818BF0B2040F01681002590488D490570F4
:204D50008B48FC60524615F085FD317B272015F083FDB8F1010F07D06570022013F030FAC9
:204D7000062013F02DFA01E0012060702078012840F2AB80801E012868D9801E012833D908
:204D9000801E012800F2DF8015F05AFD83464FF0805000F5EE77D0F8DC01A378466A00935A
:204DB00021782846062908BF0120019001200290A068228AE1686368B0478146584616F057
:204DD0007DF8B9F1000F40F0C080B8F1000F02D015F01EF802E0504612F0C0FF002800F02F
:204DF000A4803868806A2AE015F02AFD83464FF0805000F5EE77D0F8DC01012306680093C3
:204E1000A168A27860682478AC46042C08BF9C466346B0478146584616F050F8B9F1000F24
:204E300040F09380B8F1000F02D014F0F1FF02E0504612F093FF002877D038684068804717
:204E50004D49C1F8B0510D6081467EE015F0F8FC83464FF0805000F5EE76D0F8DC01E38A24
:204E700087690093E0680190208B0290A0780390207D04900121059122782846022A08BFFA
:204E9000081CE1786268A368B8478146584616F015F8B9F1000F58D1B8F1000F02D014F0C9
:204EB000B7FF02E0504612F059FF00283DD03068006A80475FEA000947D13068C569A16823
:204ED000E28A2369E078A847BEE715F0B9FC83464FF0805000F5EE76D0F8DC01E38AC768B2
:204EF0000093E0680190208B0290A0780390207D2946049001200590257805B90146084608
:204F10006268A368E178B8478146584615F0D6FFB9F1000F19D1B8F1000F02D014F078FF6D
:204F300002E0504612F01AFF08B914201AE03068406980475FEA000907D130680269216920
:204F5000E078904780E74FF0FF39B8F1010F05D0022012F081FE062012F07EFE034815F00F
:204F70008DFC484607B0BDE8F08FC0461808002050080020398B0100504502408F280020FE
:204F90002DE9F24F054684B02868D0F80490D9F8080015F08BFF002805F59A7B40F00581EA
:204FB00028680169049815F085FF05F1820680463078002805F12E0440F6C41A00F087807B
:204FD00070882989401E80B215F0C0FF0746307802280CBFBBF83000A088784300902868F3
:204FF000016900980AFB0011049815F05FFF002868D07F1C03973078009F039A02280CBF1C
:20501000BBF83000A088C71900230AFB07F0029201930090296809694118049815F046FF7C
:2050300090B100983189A8EB00080AFB01F0B8FBF0F200FB1288B8F1000F18BF521C514381
:2050500001910399521802922989029841186981F18801983278CF19C719012A48D105F1C7
:205070008601284614F0D2FA7089688400212977E983E88969894118A9813289A188B08946
:205090008A4204BF2389984202BF7189E388994207D0000900907389A9795208002015F0DD
:2050B0005DFFA088ABF83000317921703089A0807189E180B0892081284614F0E3FC0220CD
:2050D000307015E03178012918BF14F06FFAA08829890AFB00F0B8FBF0F700FB1788B8F168
:2050F000000F18BF7F1C79186981BFB2A08847432968344A08690AFB0700C9F808000B78A9
:20511000802B10D1C860D2F83080A388D8F8000043436420B3FBF0F3D9F814000AFB03F3DB
:20513000A3F5966343610B78402B36D1AF614FF4C873688A4743B7FBF3F0401C6861D9F8A0
:205150000830181AC9F808006B69DBF8000000EB4300D9F8143058611B4833780068022BC6
:205170000CD1AB795B0100F1140656F803C026780AFB06CC00F1140646F803C0AB79126B84
:2051900000EB4316A388106843436420B3FBF0F30AFB03F0A0F59660F061D9F808008860E8
:2051B0002846E17AA17211F063FF6989A88915F0CDFEE989814238BF0120ABF82E0005B0DA
:2051D000BDE8F08F58CE0100542800202DE9F04F0F4601468548D0F800B0854805684DA378
:2051F000924600240FF2F009ADF1140D081C22D0401E0ED0009120460190032202903BA37B
:2052100003904FF4A771049048460AF021F802205FE047A00090264601974FF4A57102968E
:2052300001220396484604960AF012F8DFF8C481714E5D460FE040A000902646019740F263
:205250003F11029601220396484604960AF000F8DFF8A8816A4E022F2CDA002F2AD04046E2
:2052700051463A460AF0F4FF3780A878002808BF33A103D001280CBF38A13EA128882646E5
:2052900000900122019140A30296484603964FF4B071049609F0DCFF07205A4F009041465E
:2052B00022465A4B3878584F01902846029709F0AFFB0DE00097012001904FF4B771032279
:2052D00002903CA303944846049409F0C1FF1824204605B0BDE8F08F627574746F6E5F73EE
:2052F0006572766963652E6300C046C0536574506172616D657465723A20506172616D654C
:2053100074657220232564206E6F742076616C69642E00C0536574506172616D657465720A
:20533000203A202573206C656E3A20256400C046425554544F4E3100425554544F4E3000EA
:205350001B5B33336D4E6F74692F696E642064697361626C65641B5B306D00C04E6F74692B
:205370006669636174696F6E20656E61626C656400C046C0496E6469636174696F6E206598
:205390006E61626C656400C0547279696E6720746F2073656E64206E6F74692F696E643A0F
:2053B00020636F6E6E48616E646C652025782C20257300C04C656E677468206F75747369AC
:2053D000646520626F756E64733A204C656E3A202564204D696E4C656E3A202564204D61D9
:2053F000784C656E3A2025642E00C046102800200C280020C90E00206E0D0020C80E0020BB
:205410006A0D0020680D0020A9930000440700202DE9FE4F8A4C617811B9002014F0C6F8EB
:2054300015F07CFD06464FF0000806F6C4160027844DDFF8149211E0384614F09FFE417936
:2054500051B12A68817902F8081008F101015FFA81F83146FFF794FD7F1CFFB299F80000F4
:205470008742E9DB6178884505D0002014F09EF88220FBF78DFD6078012840F0C3800027A1
:2054900001E07F1CFFB299F80000874280F2B480384614F073FE064670790028F1D029682D
:2054B000B0790A7890421CBF002014F07FF8B079A0E0286810F8090014F060FE006842682B
:2054D000DAF808109068814204BF3E4609F1010900F0A680A8E0286890F800B001224FF400
:2054F000D0710FE0636803F5B176835C01FB03F901FB0BFE36F809C036F80E60B44538BF23
:205510009B46521CFBB29A42ECDB4FF6FF700DF02FF80646584614F031FE4C490068D0F822
:2055300004A00868D94630F8192060684FF4D07300F10E0103FB09F3C85AB2EBD00F52D2BD
:20555000720840F6C410424300920027404A0190029217E0584614F011FE01680A78802A8D
:2055700003D1DAF81430009A5A610978402908D1029980790A6802EB4011009800F5A06048
:20559000C8617F1C47452EDA2868C05D8345F8D001464FF4D073594363685A1803F5B173A4
:2055B000D289595A53088B4202D2521A9045E8DA14F0E4FD01684A68019B9168DAF808203F
:2055D0007008A1F6C41103FB002015F06FFC0028C0D01E48006830F81910491C20F81910CC
:2055F000286810F807B01948026800215B4622F813105846BDE8FE8F002013F0D7FF822017
:20561000FBF7C6FC617828680EF063FA2868007814F0B4FD00260068D0F804A04FF0010902
:20563000771CC145FFF645AFF6B2002E1CBFF8B200287FF450AF286890F800B065E700BF10
:20565000684E0020004F00207B4F002064280020542800202DE9FE4F8648DFF81C92027893
:20567000002A41D0D21F012A4ED90A3A40F0FA80824C2078002108F05BF804001EBF606D2E
:20569000407810F00C0F2FD0C00603D5216D886D026802E0206DC16E0A6802F10805062265
:2056B000A91C684614F014FC287800F00F0105291AD16946C0F3801015F020FC002813D07C
:2056D0004946684612F026FF0546494604F1380012F020FF85420DD0606D4178C80604D45E
:2056F00040F2014015F016FCC2E0607B40F002006073BDE01E20454309EB0500062269465B
:20571000C01D14F0E5FBB3E0DFF874B19BF80200FF28F8D014F032FD804608F16C06706869
:2057300015F0C0FB00900179032907D18068047814F0030403D1706815F0B0FB98E045788B
:20575000032C00F1020A08F2171706D198F8940000284AD0042D11DD1CE0A5B1307868B176
:2057700008F1F400017801290DD1424A1178072904D0082904BFC078012804D13D21797021
:205790000120387074E03F490A78012A70D098F8940050B32D1FEDB253462A46214640465F
:2057B0000BF09EFA38B93D20787001213970484612F0C7FE5CE0344801688847814698F8A9
:2057D0000610DBF804204FF4D07041435018002280F8412108F59E700168807949080DF086
:2057F00001FE2A490A684846904700990020032C886016D0264841690878820707D5C007D6
:205810004CBF0320002040191AF8000000E08120307223469BF802002A46514604F080FA29
:2058300018E09AF800001A2803D21A4A115C8D4205D0B870072140460DF0C6FC07E00D4871
:205850000178082903D051464046FAF7EFFB50460FF0DAFD706815F021FB0099404612F03D
:2058700009F805E0002013F0A1FE8620FBF790FBBDE8F78F6F4F0020A4220020992800207D
:20589000684E0020794F0020B00B0020B40B002058CE010090CE01002DE9F04F0E46864982
:2058B0000D684FA3071C92464FF000040FF2F80BADF1140D24D07F1E0ED00090204601907A
:2058D0004FF49B710290032203903BA30490584609F0BEFC022063E048A00090274601967B
:2058F0004FF499710297012203975846049709F0AFFCDFF8C891DFF8C8810127142011E07B
:2059100040A000902746019640F227110297012203975846049709F09BFCDFF8A891DFF893
:20593000A8812820B0422DDB4846514632460AF08FFC002FA8F8006031D0A878002808BF8B
:2059500032A103D001280CBF37A13DA1288826460090012201913FA30296584603964FF492
:20597000A471049609F074FC0620584F009049462246584B3878564F01902846029709F022
:2059900047F80CE0009601944FF4AB71032202903BA303945846049409F05AFC18242046EF
:2059B00005B0BDE8F08FC046646174615F736572766963652E6300C0536574506172616DA0
:2059D000657465723A20506172616D6574657220232564206E6F742076616C69642E00C0B1
:2059F000536574506172616D65746572203A202573206C656E3A20256400C04653747265D2
:205A1000616D00C0537472696E6700C01B5B33336D4E6F74692F696E642064697361626CD5
:205A300065641B5B306D00C04E6F74696669636174696F6E20656E61626C656400C046C022
:205A5000496E6469636174696F6E20656E61626C656400C0547279696E6720746F20736511
:205A70006E64206E6F74692F696E643A20636F6E6E48616E646C652025782C20257300C04B
:205A90004C656E677468206F75747369646520626F756E64733A204C656E3A202564204D03
:205AB000696E4C656E3A202564204D61784C656E3A2025642E00C046442800208F0C00203A
:205AD0007A0D0020BC0A0020760D0020740D00200D950000B40700202DE9F84F894E71685B
:205AF00084B0009121B905B0BDE8F04F15F0D2B90978DFF81492DFF81482854FDFF814B2F2
:205B100001291CBF0229042941F64C5A04D0402918BF802970D0EBE014F0BEFD0028FAD0C2
:205B30000098007805F0B0F9054614F017FD04469BF80100002841D0FFF76AFC14F01EFBB4
:205B50000290016800914968019194B1009928460DF012FC02280CD029780129DBD118B9C1
:205B700015F0DCF95044A0600120B07011213970B8E00098017880290BD1082038700199F3
:205B900098F800204869012A0BD0D9F828100A780DE007203870019998F800204869012A21
:205BB00002D10121C17203E0D9F828104A78C2720298817900988BF8021094E0002DAAD0EF
:205BD00000992878A94208D1012802D1002C03D194E0002013F0EAFC84E001289BD1002C1A
:205BF000F6D015F09BF900F5C241A068A83115F05DF9002872D16DE09BF80100002859D065
:205C1000FFF706FC14F0BAFA04462068019045689BF8020014F0B2FA039014F043FD10F098
:205C3000070F21D0B07805F02FF9009014F096FC0290C8B1019900980DF09EFB022813D002
:205C500000990A78012A0CD128B915F067F982440298C0F808A0112139700120B070009857
:205C700041E0002013F0A2FC0398A04220D00199087880280DD10821397098F800206869D2
:205C9000012A02D10121C1720FE0D9F828100A780AE00720387098F80010686901290EBF06
:205CB0000122D9F828104A78C272A0798BF80200019818E014F0F6FC10F0070F1ED0B07861
:205CD00005F0E2F8054614F049FC04462878012814D19CB115F022F95044A060112038707F
:205CF0000121B170284605B0BDE8F04F0BF0F2B905B0BDE8F04F002013F058BC05B0BDE87A
:205D1000F08F00BFF827002058CE0100734F00206F4F0020684E00202DE9FE4F05467B48C8
:205D3000002400680094C00905D37948007810B9202012F017F9012D40F0E280DFF8009215
:205D5000D9F8DC00012840F0D8800220C9F8DC0013F0F2FF012012F005F95FEA000805D0DB
:205D70000120C9F8DC0013F0F3FFCBE014F08EFDA34602906748684DC0F800B0A86A016864
:205D900001208847012804D158460DF00FF9012000906248624FC0F800B03868112014F019
:205DB0001BFC00B10124102014F016FC08B144F002040F2014F010FC08B144F004040B204E
:205DD00014F00AFC20B12868564E016B308888470A2014F001FC20B12868534E016B308860
:205DF00088475248012606602868816944F0200088474F48066014F0E9FB00F00101019197
:205E1000400814D2286A81684A4888478246BAF1040FF7D0BAF1010F04D1286A42684548C2
:205E3000032190474449086820F003000860584600F088F82B683868986B80470198012812
:205E50000CD0BAF1010F04D1286A42683948314690473949086840F0030008602F48066051
:205E700028684169204688470B2014F0B5FB20B128682C4BC16A188888470A2014F0ACFB7D
:205E900020B12868284BC16A18888847274806600322C9F8DC20264BC3F800B02868416BB5
:205EB000204688470128F9D13868042012F05AF80446184806603868144800688009FBD3C7
:205ED0000098012802D130460DF070F814F06CFB082012F047F807460298C9F8DC6014F087
:205EF000D5FF164800880CF039FE13F031FF57EA040018BF4FF0FF3804E06FF0040801E0B0
:205F10006FF001084046BDE8FE8FC04614100940340500200C400940B801001000022243C0
:205F30002C2009406ABA010066BA010028200860800104430040034024220840D8BD010057
:205F50004C0400202DE9F84FDFF804B20746ABF13500DFF8F0810068800880F0E2807548F2
:205F70000068006880477E490831D1F8009000254FEA29715FEA995201F101010AD2C0F174
:205F90003E0210F10A0F4FEAE202D8BF08229142B8BF111C684BD3F87C21C2F30462162ACC
:205FB000A8BF203A1B68C3F30443162BA8BF203B9A465218162A05DA12F10A0FB8BF6FF032
:205FD000090200E015225D4B5D4E02F01F0141F4F8511980316811F0030F18BF0125C90899
:205FF00028BF45F002050FB145F00405434693F90710411A052904DA9979A94208BF9988F8
:206010006FD0DFF844E10F28A0F10F0829DB08EB0011A1F1F0084FEA28210091072984BF3E
:2060300007210091062988BF06215EF821600424774604EB81043C594FEA950CA41BEE08A6
:2060500004F0FF0124BFC4F3072631446F08AE0824BFC4F3074631446E0828BF01EB1461B9
:2060700004E000214FEA950C6F080091009C5EF824E05FEA5C060EF0FF0424BFCEF30726B6
:2060900034447E0824BFCEF3074634446E0828BF04EB1E64009E89B2A8EB062671438031BE
:2060B00004EB1124AAEB02010029D8BF0121342209F0FF074A4391B24FF6FF727943B1FBEF
:2060D000F4F18A4238BF111C802889B2998005DA10F1800FB8BF6FF07F0000E07F20D87153
:2060F0009D711A4800681F2918604FF0000008D340F2FF128A4206D24908401C8A42FBD3B0
:2061100001E01F219980134F0F39090940EAC10047EA0001CBF8FB1F0026CBF8FF6FBDE883
:20613000F88F0D490D4F434608200F609B1D1870BDE8F88FEC0100103C1100506E620840D8
:2061500024220840242800209C130050082009403500094000E7A48030100940FDFDA40015
:20617000AC3F00502DE9F84F824A83461078002107F0DEFA9BF80010044601291CBF002058
:2061900013F014FA14B9002013F010FA04F14C064FF47A67B0684178D6F804A0C8064FF029
:2061B0000B0841F64C592CD50AF17800002101808170C17001714171C18001818172C1729B
:2061D000C160A07B01281BD014F0A8FE0AF108054844296814F06AFE002811D014F09EFE7B
:2061F0004844286014F04EFE0B2290FBF2F2296808FB12081FFA88F007FB00172F60276120
:2062100083E00AF174010020088400220AF19600027042708270C2708280C2800272427288
:20623000CAF8A0200AF1080514F078FE2968484414F03CFE88B114F071FE4844286014F02B
:2062500021FE0B2290FBF2F2296808FB12081FFA88F007FB00172F6027610AF14007607DE5
:20627000C1064FD5287AA27D521CC0F38001002392B200F0030011F0A1F8A0831E20A28B3E
:2062900002F5FA731E2193FBF0F001FB1030C0B208B1C0F11E009BB28C46801893FBFCFC6A
:2062B00000F5FA7002F5FA7201FB1C316083A283C9B209B1C1F11E018A18A28380B2E17D5E
:2062D000491E92B202FB01026283608B2A68C03002EB800139620220F877618B02EB8102BB
:2062F0002A63287A18B9397809B120322A63A18C286BC03100EB8100CAF8740002208AF84D
:20631000730002E000213962F977616870681A4A8A614860B2685078C3065CBF1020886175
:206330005078830703D5886940F4002088615078430704D5886940F40000886188610F4BB9
:20635000187800281CBF507810F0030F03D0886940F4802088610020B1683070087E10F0E0
:20637000300F04D05846BDE8F24F10F021B8BDE8F18F00BF9928002002000080784E002070
:206390002DE9F84FDFF8F4A19AF80000002107F0CFF9040004F1500602D113F007F9DEE0CF
:2063B000207A30B9204612F05DFA204613F026FE1EE0207BDFF8C881401C20730121E172E1
:2063D00030694079C0B1217B814215D198F80000402111F09FFB00202072204612F042FAC3
:2063F000204613F00BFEFF22432120460EF0DAFCBDE8F14FFFF770BB04F14509002089F872
:20641000070014F03FFDD6F804C027690146DCF803004FF00B0E20F07F4040F6C41391FB25
:20643000FEFE0B2203FB007702FB1E1189B24FF47A604143306889B200F10805C91929606A
:20645000216104F122079CF80110CA0618D5A17B01290AD100202072204612F003FA98F862
:206470000000022106F00EFE65E090F8731001F0E00141F0860180F87310424941675AE0A5
:2064900080460020A8F8020008F1600B217EA971607DC10606D5618B2868C03100EB8100EF
:2064B000CBF8000008F18800217D01700021627D4270C17081603888401C388080B213F0AC
:2064D0007BFF84F821000022617D01F0FE01204607F0C8FA0020E882E17D6984688508F1CB
:2064F0003E0094F8211001F03F0101702A68618B02EB81022A630022028299F80010818329
:20651000726851788A0709D5B98879800121A27F02F03F0242F08002A2778183E07FC106B2
:2065300009D57988286BC03100EB8100CBF8140002208BF813001449087880B1387F0228FE
:2065500018BF03280BD1114F07F10D0014F0DAFC28B90622F91D04F1300013F0B9FCFFF71C
:20657000BBFA4CB17068017E480605D55146BDE8F44F032013F03AB8BDE8F18F992800203D
:206590006E4F002000204E00784E0020A42200207FB5804D03461446084600261946A1F5C7
:2065B0008062132A04D9183A33D0921E22D015E0DFE812F0E4001400DD00D600CE00C500DC
:2065D000BE00B9001400AE00140014009D009200140014006B0052004B003700092907DAA1
:2065F000022805D10846218811F0ECFB0646CDE00226CBE0002840F0C88014F09FFC30B9B8
:206610000CF026FF0646502013F040FBBEE00C3587E0012840F0B980002C00F0B6800D35E3
:2066300084E0602800D13CB9012840F0AE80002C00F0AB80093579E005F1780021466022DC
:2066500013F046FC01206872A0E0012840F09D80207814F013FC99E0012840F096802078C9
:20667000022800F39280002800F08F802B4603F1080108702078022818BF301C02D11020E6
:20669000D871012014F0F6FB80E007287DD1611C01A8062213F05CFA33460093217801A8B9
:2066B00003AA07F053FDA8B914F048FC50B99DF80C0005F0A5FE0646502013F0E7FA0FF04C
:2066D00025FB63E09DF80C002A46012102F1200529545BE0342659E0012856D1A87A2178A6
:2066F0000028A97252D1207801284FD1E7E7297A01284AD1022904D02078072801DB1028B4
:2067100004DD022941D1207810283ED1E8713DE000283AD114F012FC10B913F064FCCAE7D4
:206730000B3501211AE001282FD1AD1D217815E001282AD12178022927DA6D1D0EE01028D3
:2067500023D1284621461022383013F0C1FB1DE001281AD12178022917DA2D1D297015E069
:20677000012812D1217804290FDCED1CF6E701280BD12178022908DAAD1CEFE7012804D11E
:2067900021780229D8BF6D1CE8DD1826304600907FBDC04660050020F8B57F4F04463868D0
