:2000000000400020CD4E010001C9011001C9011001C9011001C9011001C9011001C9011042
:1C00200001C9011001C9011001C9011001C9011001C9011001C901103FC9011089
:20003C002DE9F04F85B0804611F8010BDFF81028009008F1FD00009B182B08F1E70508F1EE
:20005C00660A08F20D1B08F5B07408F1860908F59C7608F5C67700F2E183DFE813F01900C7
:20007C006A0080018800DF03DF03F100BA0303011801F40000014701DF03DF039F01DF03DF
:20009C0082016A01C6030B030B035E02DF03A90211F8015B89F80050022208F1880000F0B9
:2000BC00D9FB0146022208F18A0000F0D3FB0146022208F18C0000F0CDFB0146022208F198
:2000DC008E0000F0C7FB99F80010B9F80220490089F800105200B9F80410A9F80220490053
:2000FC00A9F804100222B9F808100901A9F80810014608F1840000F0ADFBBAF81E10B8F893
:20011C000800091A89B247F6FF72914225DAB9F80600B9F80410B9F80820401C4900484358
:20013C00904228BF3B2080F06F8201208AF81C0018E0052208F1610000F08CFB0146022214
:20015C0008F1920000F086FBB9F80C10B8F80800091A89B247F6FF72914280F254820120BA
:20017C0089F80A000021A8F81E10307065E3AA7DD00709D4687B1A210128A97302D1FF22CF
:20019C000D213BE00D210DE200208AF8000001226A7408F1B000082200F05CFB01460222B5
:2001BC0008F1B80000F056FB08F1A80401460822204600F04FFB06460821204600F04EFB67
:2001DC0008F19C0404223146204600F043FB0421204600F043FB08F1A00000F043FB08F1C0
:2001FC00980000F043FBDFF85C06018841F080010180687B012807D1FF220421404605B0C3
:20021C00BDE8F04F10F074BC9AF811500F2D18BF142D03D00E2D18BF0C2D0FD19AF8104087
:20023C00404613F045FA0421404611F0FBFB012C12BF29468AF81A50FD21B3E10421B1E176
:20025C000120E873F9E2002100208AF800108AF8060001216973287068700B21A2E1012092
:20027C002874EAE2541C00230932CD5CD65C3543CD54E65C3540C5545B1C082BF5DB9AF85C
:20029C00060000284BD0404611F06EFCCBE2002302F10906CF5C16F803C04CEA0707CF54D3
:2002BC0002F1010E1EF8039007EA0907C7545B1C082BEFDB02206875E97D080703D440F666
:2002DC004800A081E08150788106CAD520891B2804BF60891B2807D1A089B0F5A47F04BFE3
:2002FC00E089B0F5A47FBCD014215BE19BF80000012811D011F8012B8BF8032008F5897046
:20031C00022200F0A7FA0146022208F58A7000F0A1FA01218BF800109AF80600002800F0BA
:20033C00AF819BF8020000282AD1404610F0EAFE79E2A87DDFF81045C10609D412208BF846
:20035C000C00404613F0E7FA002819D120786DE2404613F083FF002812D1207866E208789C
:20037C0052E108782070497861709AF8100001280ED19AF811000F38012802D9C01F03D042
:20039C005BE20122727358E2387B40F0010043E205B0BDE8F04F002017F07EBCA87DDFF8C3
:2003BC00A844820709D40F208BF80C00404613F0B2FA0028E7D1207838E208784A7800EB1D
:2003DC0002203082CA78887800EB022070824A79087900EB0220B082CA79887900EB022018
:2003FC00F082087A30764A7A887A02EB00227283C87A0A7B00EB0220B0838A7B487B00EBC3
:20041C000220F0830A7CC87B00EB022030848A7C487C00EB022070840A7DC87C00EB0220FE
:20043C00B084487D897D00EB0120F084DFF81C0401788A0658BF1A2213D508F5AA7004903B
:20045C00718B0391307E0290B8F808100191F08A0090B38A728A318A404610F087FBA0B1FF
:20047C001E22A87D410709D40F208BF80C00404613F051FA00284DD12078D7E1404605B073
:20049C00BDE8F04F0F2115F019BE708AA9F804000022B18AA9F806100221F08AA9F8080057
:2004BC0089F80010A9F80220B8F83400C01DAAF81E00B8F83210B9F80400B0EB510F02BFE8
:2004DC00B9F80600B8F83410884202BFB9F80800B8F83610B0EB111F1DD09AF81000012898
:2004FC0004BF9AF811000F2807D09AF8150020B10F218AF81A10FE2154E0FC21404611F021
:20051C0091FAF08A0090B38A728A318A98F8060000F0B0F991E1102144E0E87D10F0090FC3
:20053C0003D116208BF80C007AE14A78087802F00702104008707A7B0240FA7211D0501EB4
:20055C0002420CD0520704D5B87B10B10421F97205E0F97A0220014219D14008FBD1F87A7C
:20057C0008B9B87AF872F87A042803D1404612F077FDA083F87A00F081F93871A28BB97B8B
:20059C00012314F0A5FA218B814202D208E0F872E5E7A28BB97B3879012314F099FA014603
:2005BC0079801721404605B0BDE8F04F11F03ABA48780A78824207D100F00700104008703D
:2005DC0033D0431E18420FD01E221821404615F075FD98F80610012301221E200CF024FFA2
:2005FC00387B40F0400017E1F87247F6FF728878C97800EB012038813989B8F80800091A09
:20061C0089B2914206DB282001218BF80B008BF80A1012E10120B871F97A042903D1404603
:20063C0012F01EFDA083F87A0BE09AF81100162806D1BB7A98F806101A4600200CF0F4FE00
:20065C00B87A3871A28BB97B3879012314F040FA218B814206D3A28BB97B3879012314F0AD
:20067C0037FA014679800121387B40F0400038733170E2E0142B04BF9AF80600002806D101
:20069C003D2101208BF80B108BF80A00D5E00A78487802EB002262828878CA7800EB02205B
:2006BC00E0824A79087900EB022020828879C97900EB0120A08208F5B07108F5B0708A8A09
:2006DC00C089B97A904288BF1046042905D140F691229042B8BF4FF42960E28BE083904270
:2006FC00B87A14BF01250025042805D1404612F0B7FCA28B90420AE008F5B07008F5B0712D
:20071C008089CA8AA18B904288BF1046884214BF01210021A0830D4308F5B07008F5B07137
:20073C0000894A8A218B904288BF1046884214BF012100210D432083A28BB97BB87A01239B
:20075C0014F0C6F9218B814206D3A28BB97BB87A012314F0BDF90146798008F5B07008F5A7
:20077C00B0724189108A628B814288BF01466183914298F8063014BF0120002005438A42F4
:20079C0033490A6802EB4311628B8041121DC00F0A7610B1404615F031FF009814280ED1B3
:2007BC0045B1E08B0090638BA28B218B98F8060000F068F8152140460FF094FC33E01DB153
:2007DC00387840F008003870397841F02001397033E008780E280ED00F2809D0122804D0FC
:2007FC0014280BD0162811D027E00021317224E00120307321E0032169751EE0387840F033
:20081C000200387040F01000387016E0387B40F00200387340F0100038730EE08BF80C300C
:20083C00404613F078F840B9074800784FF4804105B0BDE8F04F0BF081BC05B0BDE8F08F35
:20085C0098250020524F00206E4F0020144E002080260020DFF800F0D1920010DFF800F0B8
:20087C00AD710110DFF800F00D720110DFF800F021720110DFF800F0E5BE0010DFF800F02A
:20089C00BD8F0010DFF800F065BF00102DE9F84F012015F001FF012819D1DFF89846207802
:2008BC0000210BF0A1FF5FEA000804BF002017F0F3F9002088F8080008F1040012F014F985
:2008DC0006F0C6FD050003D1812000F05BFB2AE301206871DFF86026DFF860064178491CC4
:2008FC004170A87988F80A0040202178117005F597740DF007FE2860D8F854104A78D8F8B1
:20091C005000D1061AD5806D01680A79032A1CBF002017F0C1F9D8F85000816D90F87C00D1
:20093C000A6802F1080601281CBF002017F0B4F9D8F85000D0F88410286846E0C06E016887
:20095C000A79032A1CBF002017F0A6F9D8F85000C16E90F898000A6802F1080601281CBF44
:20097C00002017F099F9D8F85000DFF8D425D0F8A0102868DFF8CC95C16096F82670138892
:20099C00032F22D8DFE807F00205101801F5B06101E001F53471C160B9F80000E087B9F8B5
:2009BC000010A5F8741113E0E3871188A5F87411C26802F5355206E0E3871188A5F874111E
:2009DC00C26802F6B872C26002E001F5B061C1603078DFF87495DFF874B5C0F38010207028
:2009FC000622B11C05F5947017F0C6FD042206F10E0105F1240017F0BFFDD9F80000AF791C
:200A1C0000F10C03042206F10E0103EB471017F0B3FDD9F80000AB7900EB4317032206F13C
:200A3C00120107F1100017F0A7FD05F12C07707DB870022206F1160105F1300017F09CFD9E
:200A5C00022206F1180105F1320017F095FD022206F11A0105F1340017F08EFD38896884E6
:200A7C00022206F11C0105F1360017F085FDB87879894000B8700901B88879814000B88017
:200A9C0089B2F8884000F88003046A8C521CDB0B5A438A4201D280B230B99BF800008021EB
:200ABC000BF04CFB3B213FE105F12E01284617F023F90520A881284617F03CFB052206F18E
:200ADC001E0105F1610017F057FD96F823004009387016F09DFE6882B8F82A10401AA08197
:200AFC0005F1610196F82300DFF8644400F01F00F873284614F051FBD8F854104A78D8F854
:200B1C005000D10647BF0022806D0022C06E1C2601680A7141F62102A979206871434252BB
:200B3C000021AB7973430344001D5980AA7972438150D8F85420DFF81C045178CA060DD502
:200B5C00DFF814148A7851060AD5DFF81024138841F20A418B4208BFDFF80404C5F89C0151
:200B7C00D5F89C11284688472268A97902F10E03714358540021AA792068DFF8E83372431F
:200B9C000244D173187878B1B88868B979730120288168812846D5F89C2190472168AA797B
:200BBC0001F10E0372439854A8792168704301F10E02135C7B73D8F854104A78D1061AD5FD
:200BDC0095F8960108B917F067F8A97920687143014495F89601421E0A74A87921687043AC
:200BFC000844002141742268A97902F112007143002242522AE0D8F85010236891F84020EE
:200C1C0018440274A879216870430844D8F8501091F841204274D8F850002168AB79403030
:200C3C0001F1120273434188D15205F5CB710078012200F0030082400A70D8F8502092F826
:200C5C004000800814BF012002200871A979D9F800002268DFF810A300EB411302F1140CC8
:200C7C0071434CF80130A97971431144BF4A8A61DAF81410097895F806E0CA074CBF102218
:200C9C0000228B074CBF202300235FEA417C4CBF4FF0400C4FF0000C09074CBF802100214F
:200CBC0013434CEA030308304FEA4E1E0B4343F00F0300F80E30D9F80010A87901EB4012A0
:200CDC000B215172D9F80000AA7900EB421104208872D9F80020A97902EB4110A44A1378EF
:200CFC00012B02D10121C17203E0DAF828104A78C272D9F80000A97900EB41121F201076AB
:200D1C00D9F80010AA7901EB421000214176A8790CF062FEA979D9F8002049015050A97901
:200D3C004B01D05820B90721284616F0D1FEFAE09048026802EB011000F028F98D4AA879BC
:200D5C001368D9F8001003EB00120B1D40011A50081DAA7952018058F863AA795201885824
:200D7C00786404219BF800000BF0E8F9D8F8540042782168D00648BF4FF0020B0BD4A87957
:200D9C0070430844027C02F00302022A14BF4FF0040B4FF0060B734BBA881878934410B1FE
:200DBC000AB9F888834498F80D2090070AD50521284616F08DFE98F80D0000F0FD0088F8AB
:200DDC000D00B4E0688A00FB0BF04FF4C872B0FBF2F2521CC5F818B06A6140F6C41CA8796D
:200DFC002B687043009001F1080ED8680CFB0B0B0098ABEB0202A2F5A8624EF8002001F171
:200E1C000802A87906FB00FB52F80B00986001F10C02A87970430C31135C03F0EF030B547E
:200E3C00A8792168704301F10C020C31135C03F07F030B54A8792168704301F10C020C311F
:200E5C00135C03F0F00343F002030B54A8792168704301F10D020D31135C03F0F00343F066
:200E7C0001030B542068A97900F10802714350582A6810616B69D9F80000AA7997F802E0B6
:200E9C005B0000F1140152010CFB0E3303F5F6638B5095F89611042907D1A979490100F178
:200EBC001402535803F561635350A97900EB4110C27C02F0F00242F00402C274FB88D9F8B4
:200EDC000010A879DAF8307001EB4012386843436427B3FBF7F30CFB03F0A0F59660D06116
:200EFC00A87901EB4010C17E01F0F00141F00401C176A97920682A684E4381195160284665
:200F1C000E2110F08FFD1C4907200870404617F0BDFBAA790021404612F072FB2868174988
:200F3C00174A41618261BDE8F14F04F099B8BDE8F18F00BFC5260020C6260020684E0020B4
:200F5C00B6260020B4260020802600206E4F00207C260020273D010098250020504F002019
:200F7C00FF320100784E0020A0B401005C4D0020734F00208C4E00206F4F0020B955010056
:200F9C0002048080DFF800F09D920010DFF800F051A50010202101704FF42B7141800321E6
:200FBC0001710A4981604FF0FF3282620849C1600849016108494161084981610849C1615D
:200FDC0000210162416280F82C107047089801102C98011050980110749801109898011086
:040FFC00BC9801108C
:20100000B41200001810000015AB0110FDB301106DC00110FDAE011099B5011059BA0110D3
:0810200039BA01102D00000097
:20102800B01200003C100000B1C00110A9BF011067C0011069B80110B9B9011099B901104F
:041048003000000074
:20104C00B012000060100000BDC00110CDB30110D9BD01106DB301108DB80110D9B9011062
:04106C00310000004F
:2010700000000000C40C002004000000000000000000000020000000E8C90110300000005A
:2010900028100000CC0C00200400000000000000000000000C000000D8CA01101800000035
:2010B0004C100000D40C002004000000000000000000000024000000F0CA011018000000B9
:2010D00000000000DC0C00200400000000000000000000001000000018CA01102C000000C5
:2010F00000100000EC0C0020040000000000000000000000200000006CCA01102400000029
:20111000FFFFFFFFF40C00200400000000000000000000002800000090CA011024000000E8
:20113000FFFFFFFFFC0C00200400000000000000000000001400000008CB01101800000067
:20115000FFFFFFFF040D002004000000000000000000000058000000B4C901103400000034
:20117000FFFFFFFF0C0D00200400000000000000000000001000000020CB01101800000002
:20119000FFFFFFFF140D00200400000000000000000000001C000000B4CA0110240000002F
:2011B000FFFFFFFF1C0D00200400000000000000000000003800000044CA01102800000057
:2011D000FFFFFFFF240D00200400000000000000000000005400000078C901103C000000CC
:0811F0000200000010A601003E
:0411F80001000000F2
:0411FC0000000E00E1
:0412000000000F00DB
:0412040032000000B4
:0412080001000000E1
:04120C00C40A0020F0
:0412100000020000D8
:0412140000000000D6
:0412180001C90110F7
:04121C0000000000CE
:0412200000000000CA
:0412240008000000BE
:0412280000002200A0
:04122C00FC0800209A
:0412300000000000BA
:0412340000000000B6
:0412380008000000AA
:04123C00500A002034
:0412400000000000AA
:0412440000000000A6
:04124800080000009A
:04124C00000000009E
:04125000000000009A
:041254000000000096
:041258000000000092
:04125C00010000008D
:0412600064090020FD
:041264000600000080
:041268000100000081
:04126C00EC0700206B
:04127000000000007A
:041274000000000076
:041278000002000070
:04127C00000000006E
:02128000290043
:02128200010069
:02128400250043
:02128600300036
:02128800310033
:02128A002D0035
:02128C0001005F
:01128E00015E
:0812900003000000D4A50100D9
:0812980000000000000000004E
:0412A0000000010049
:0412A4000000030043
:0412A80013C401105A
:0412AC00178701009F
:0412B000B812000070
:0412B400B81200006C
:0412B8000000000032
:0412BC00640C00209E
:0412C000F5880100AC
:0412C4002000000006
:0412C800F4A4010089
:0412CC004CA301002E
:0412D00029C101101F
:0412D4004F0F0100B7
:0412D800631301009B
:0412DC00A1C7011095
:0412E000A3C701108F
:0412E4000000000006
:0412E80096A60100C5
:0412EC0098A10100C4
:0412F000B0A10100A8
:0412F40080A10100D4
:0212F8000200F2
:0212FA000900E9
:0212FC000100EF
:0212FE000000EE
:0113000001EB
:0413040071880100EB
:04130800D1620100AD
:04130C0095790100CE
:0413100085670100EC
:041314000963010068
:04131800E54C01009F
:04131C00FDFA0000D6
:04132000F38B01004A
:041324004932010049
:0413280015C70110D4
:04132C0025C70110C0
:201330002DE9F843040014D1002016F0BBFC10E0204612F0F6FA012808D063E08A0740F138
:20135000628101F0FD0101700020B071204612F0B5F904F16605687D002853D0697CDFF897
:20137000C894022904F1EC0704F59E7804F5B07604F5C67035D0042947D005295DD00629BE
:2013900000F08D800729D3D0092900F0FA800B2900F0C5800C2900F016810D2900F0D58031
:2013B0000E2900F0F8800F2900F03581102900F04F81112900F06781122900F01C81142990
:2013D00000F09281162900F06681172900F08181FC2917D0FD2900F0A081FE2900F0AD812A
:2013F000A2E7287C012809D199F80300002813D01621204616F072FB012004E0204611F092
:2014100067FC28740020BDE8F283287C012840F0B08199F80200002800F0F5800021A971FA
:20143000FF22FC2120460FF069FBA07904F1B80204F1B00118F026F98BE7287C012811D1DF
:2014500099F8020028B1012184F89410002038607860B87A01286BD1FF22062120460FF0FA
:201470004DFB76E704F1E7063078012809D1204614F02FFC0128C5D10020B87201212974CD
:20149000C0E770780028BDD004F1C70204F1A00104F1D70018F0F2F80120307059E7297C40
:2014B000012940F06A8199F80200002840D0608CE083204612F002F901202870204613F038
:2014D00051FE0121A971397A787C012910D1C00609D5002188F80510D8F8001098F80600EF
:2014F000490810F0B3FBA079002118F0C3F810E0C00609D5D8F80020DFF8300304F5A17345
:201510005208214617F01CFCA0790122002118F0ADF8002038723873F872B87219E7287C24
:20153000012806D1F87A012804BFFF22FC2195D069E0204610F066FE012821D10020F872E2
:2015500084F894000120287403E7287C012811D199F8020048B1002184F89410012028708F
:20157000204613F0FFFD0121A97199F80300002810D148E0204613F0F7FF2874E88A2883DD
:2015900040E7287C012840F0FC8099F80200D0B3608CE083DAE6287C012840F0F680387C4F
:2015B000022804F1FD0204D1A179002018F05AF8CCE6032840F0F280A1791A2018F052F86F
:2015D00000203874C2E6287C012804F20D1140F0F0800878012804F5897240F0F080487809
:2015F000012807D15088009000201388CA78A17918F034F8AAE6287C012840F0EF8099F89A
:2016100002000028F6D1288B401E288380B20028B6D12221EDE6287C012840F0E38098F826
:201630000900012802D131780F291BE098F80800012826D1002188F80810288D00090090FA
:201650001A20AA8CEB8CA179520818F003F87DE6287C012840F0CA8098F80900012810D1CF
:20167000317810291CBF002016F01CFB002088F80900298D09090091AA8CEB8CA1797078AF
:20169000E2E7287F73E7287C01283FF461AF204611F000FA71E7297C012940F0AB80017B01
:2016B0004A061DD4CB0709D501F0FE0101730123A179707801220BF0BDFE47E68A0740F1D7
:2016D0009E8001F0FD0101730123A17901221A20F1E7297C012940F09F80017B4A0692D5B5
:2016F00001F0BF01017331E6297C012940F0968001788A067FF522AE01F0DF010A070170E9
:201710000AD501F0F7010170F08B0090738BB28B318BA079FFF7BCF816E6A97EFF22204611
:201730000FF0ECF90EE7FF2220460FF0E7F9012067E6002016F0B6FA64E6A97E0C2918BF99
:201750000E29F0D00F2902D01429ECD0F1E7FF22FC2120460FF0D2F9B8F812000090B8F837
:201770001030B8F80E20B8F80C10A079FFF788F848E620460DF0E7FEFFE6204612F086FC9B
:20179000FBE6204610F0F6F9F7E6204610F0BCF928740121E88A2883397433E6288B401E59
:2017B000288380B20028F8D1A179222017F05AFF2FE70120887020460FF0AAFCDDE6288BDF
:2017D000401E288380B20028E7D15088009022201388CA78A17917F041FF1AE7204612F08D
:2017F0001CFDCAE620460CF09DFDC6E620460CF0EBFDC2E6162120460CF0FAFABDE6288B93
:20181000401E288380B20028C7D1A1790123012222200BF00FFEFCE61721ECE7142120468A
:201830000EF066FCA9E600BF5C4D0020AD1001002DE9F04F0446A74DDFF8A092A0782A780D
:201850000FF29C28ADF13C0D002800F0A980DFF888A2401F4BD0401E09D0401E00F03381D7
:20187000083800F02B81801E00F024812EE10020009007460646019740F2CF31012202976B
:201890009BA30397404604960CF0B0F9514610200EF07EFE00904FF474710197012202974E
:2018B00099A30397404604970CF0A0F9A08814F031F800972A784946102033460EF068FE62
:2018D000002840F00381514610200EF061FE40F2DD3191A3C0F10102009201973A46029292
:2018F00003924046049201220CF080F9EEE0102051460EF04DFE617800270091012201906C
:2019100092A3029740F2AD310397404604970CF06DF96078D8B9608913F006FDDFF858B382
:201930000126241D06211323009620465A460EF025F9CDF800B03846019740F2BA310290E0
:201950008FA303903246049040460CF04FF9102051460EF01DFED0B9102051460EF018FE98
:201970003C46C0F10100009040F2BF310197012202948DA30394404604940CF037F93B468E
:2019900000932A78494610200EF002FE9EE0102051460EF0FDFD40F2C53191A302469BE7E2
:2019B0006078002840F09280267AE7798DF83260A27A8DF83170A0798DF83620E37A8DF8A6
:2019D000300000268DF8373008218DF83460677A8DF833600CAA8DF83570304609F002FC2D
:2019F0000127A01D06211323A44C009722460EF0C5F8009440463446019440F27631029453
:201A100088A303943A4604940CF0F0F89C49B1E84C1005A8A0E84C100EC980E80E00102010
:201A300005AB9849984A00950EF0B2FDC0B208B116F05EFE954E1121304612F077FE0090C2
:201A500001944FF462713A46029481A30394404604940CF0CBF811200090DFF83482019638
:201A70002A782346414610200EF092FDC0B208B116F03EFE12200090864E01962A78414644
:201A90003B4610200EF084FDC0B208B116F030FE81492A78102092230EF07AFD23460093E5
:201AB0002A78494610200EF073FDC0B270B116F01FFE0BE0204613F0BDF907E077491020B0
:201AD0000EF066FD02E0204608F078FA0FB0BDE8F08FC046CC250020B165010095D8000065
:201AF00070726F6A6563745F7A65726F2E6300C044657669636520446973636F6E6E656369
:201B10007465642100C046C04E756D20436F6E6E733A20256400C046526573746172742052
:201B30004164766572746973696E672C20256420706F737369626C6520636F6E6E656374B5
:201B5000696F6E2072656D61696E00C04C696E6B2065737461626C697368206576656E7424
:201B70002C20737461747573203078253032782E204E756D20436F6E6E733A20256400C05C
:201B9000436F6E6E65637465642E205065657220616464726573733A201B5B33326D257388
:201BB0001B5B306D00C046C0436F6E74696E756520746F204164766572746973652C2025BC
:201BD0006420706F737369626C6520636F6E6E656374696F6E2072656D61696E00C046C05E
:201BF0004D6178204E756D626572206F6620436F6E6E656374696F6E2072656163683A2084
:201C100025642C204164762E2077696C6C206E6F7420626520656E61626C6520616761692D
:201C30006E00C04647415020697320737461727465642E204F757220616464726573733A71
:201C5000201B5B33326D25731B5B306D00C046C04E616D6520696E206164766572744461D8
:201C700074612061727261793A201B5B33336D25731B5B306D00C046702500205C25002096
:201C900044A40100C58300002F760100960B0020EDAA0000840B0020DD440100515A010088
:201CB0002DE9F84FDFF84044A178FF2904BF002015F0F8FFA07816F0A1FD044604F16806D3
:201CD00004F5C9753168086804F1900710B10021E18310E0B07B002804BFB07E00280AD1AB
:201CF0003978002904BF2878002804D1207F012804BF608CE0832189E08B4118491C61810B
:201D1000204615F00DFF01281EBFDFF8E0030178012904D121890020491CE08361814FF64B
:201D3000FF78B07E01280DD1B28B6189208917F08DFC38B1218960894A1C93B298422CD08A
:201D5000B08B20E0387801280DD17A886189208917F07CFC38B1218960894A1C93B298426C
:201D70001BD078880FE02878012816D16A886189208917F06BFC80B1218960894A1C93B267
:201D900098420AD0688892B2904206D04044608180B217F057FC4044E083287801280DD124
:201DB00021896888491C89B2884207D16A792A71002028701346A1790BF03CFB04F59A7158
:201DD000087920B120890021401CE183608104F12E07B07E01283ED12289B08B521C92B20E
:201DF000904238D1608104F18601204615F08AFFB08C608400212177E183E08961894118BE
:201E1000A181B08B218917F01DFC8046B988308C728C01FB0808F08C8A4204BF3989884227
:201E300002BFB38CF9888B4207D000090090B38CA1795208002017F00DFCB07F3870718C1D
:201E5000B980B08CF8802046F18C398116F078F90220B07601E0B7F80480E28BDFF890C27F
:201E7000DFF89092501C00FB08F040F6C41808FB00F100912368D3F80CE07144D960DCF85F
:201E900000E09D499EF800A00B884FEA9A1ABAF1030F15D199F80FC05FEACC7E48BF0023F6
:201EB0000ED45B1C1FFA83FCBCF1010F11BFB4F812C004F59A7EBEF806C00CF2DC5C01E072
:201ED000B4F812C00CFB00FC4FF4C87EBCFBFEFCDFF828A20CF1010CC4F814C00B8084F8F5
:201EF00020204FF01C0BA379A0610BFB03F3DAF80010226801F1080001F1080EC05810611C
:201F1000A379D2F80CC060690BFB03F3ACEB00004EF8030001F10803A0790BFB00FC53F8F7
:201F30000C00906001F10C02A0790BFB00F00C31135C03F0F00343F002030B54DAF800008B
:201F5000A179821C0BFB01F100235352287908B915F0A8FEDAF80000A27900F1100128795C
:201F70000BFB02F240088854A079DAF800100BFB00F00844002141742879042814D1A07955
:201F9000DAF800100BFB00F001F110021031135C2A7A43EA82030B54A279DAF800000BFBFD
:201FB00002F2024420205074DAF80000A27900F112010BFB02F200238B525149A2790968C2
:201FD000520101F11403D4F814E053F802C00CEB4E0C43F802C0B27E022A08D1A2795201D7
:201FF0009E583B7808FB036601F114039E5099F80F20D30749D5A2790BFB02F200F10803FC
:2020100008309E58A6F5A8669E5001F11406A27923680BFB02F282589A600098121A1A612C
:2020300001F11402A0794001135803F5F66333502879042807D1A079400101F1140513587A
:2020500003F561632B5001F11400A27952018058C4F834012B4ABE88176B3868A579464378
:202070006420B6FBF0F601F11C036D0108FB06F0A0F596605851A07901EB401022490B7846
:20209000012B1CD10121C1721CE02879A37904280CBF4FF4AA504FF4E66001F114025B01E8
:2020B000D258BB8808FB03F3101AA3F516739842D0D30821204615F011FD012011E0916A33
:2020D0004A78C272A179DAF800000BFB01F281182268516007200D490870204613F082FB66
:2020F0000020BDE8F28F00BF684E0020784F0020084F00205C4D0020B82600207C2600200E
:2021100080260020A0B40100734F00206F4F00202DE9F04F0546C24CA97860690027ADF177
:202130001C0D0A290FDC0A2900F0B580002900F0CB81491F00F0BD81491E00F08C81C81EAB
:2021500000F07081EBE10B3900F08F80C91E00F08280491E0DD0481E40F0E181227815F0CB
:20217000B7FF002800F075811046042109F0ECFF6FE12E4628B143681BB1A88839460A4619
:2021900098476078002863D0B08813F08DF9051C00F0C581B07A400811D36B797BB1012B73
:2021B0000DD0F068800A0AD203F001033A460097A81D194613460AF067FF002843D1207AB3
:2021D000022802D1B07A00093DD3B6F804806D790C2016F05DFC06F10809061C00F0398138
:2021F000A6F80880B5723B463360B9F1000FF77209D04846082115F0F7FF706020B93046A2
:2022100016F056FC25E17360A069002808BFA66102D00368ABB90660304616F015FE4A4658
:202230002946404607F062FC6069002800F011814368002B00F00D81394640460A46984749
:2022500007E11846E5E7B088032117F0F7F966E1B08805211CE0002800F0FB804368002BFF
:2022700000F0F7806A780221D7E016F0C5FB002800F0EF80606948B104683CB128690090A2
:2022900069892A7B6B7BE81CA047E2E06889012117F0D4F9DDE0B8466F78002F40F0AD80EF
:2022B000A9794908C0F0A98002A84146082216F039FEA88813F0F8F8071C09D1227815F06B
:2022D00007FF00287AD01046042109F03DFF75E06869002854D0064641460622113015F013
:2022F000FCFFC24630B330464146062215F0F5FFE0B9307C06F11109D346464600F00100DE
:202310000590761CF6B289F80060CDF800B005994846524653460AF0B7FE10B9002EF0D1C4
:2023300004E01EB1BAF1010F02D006E04FF0010A46466E61BAF1010F22D0686950B30646F5
:20235000307C062206F1110100F001008DF80E0002A816F017F9787906F11108012805D14C
:2023700007F10C00B91D062216F00CF9B81D4146062216F007F9307C40F00200787109E006
:202390007879B91D062200F001008DF80E0002A816F0F8F8A879C00839BF387900F0FD009B
:2023B000387940F002003871A879000939BF387900F0DF00387940F020003871A9799DF87E
:2023D0000F20C1F3800010438DF80F00080905D39DF80F0040F008008DF80F0002A8294631
:2023F00004F050FF5FEA000803D1A88812F0E6FA02E0A88814F086F8606950B3436843B352
:20241000A8886A7801219847687810BBA87940081FD36069032142464368A8880FE7C04647
:20243000600500203B460093E978281D0DF1110201F001010AF028FE58B99DF8111048001A
:2024500005F10C0200EB810025300421C0B215F0A3FD012763E0A88814F054F817F0EAF897
:2024700000285CD1E07A012814D0207B01280DD02D4C3D4614F8010F012803D1284609F073
:2024900009F927706D1C062DF4DB0CE00FF014FC277308E016F0F5F8394604F120000622DC
:2024B000E17216F03FFD502015F03EFF11F0E8FF35E0687898BBE8786A892B7B291D00F066
:2024D000010009F087FC2AE0687840BB17F0AEF8054617F0A7F8044617F0A0F88DF810006E
:2024F00010212A46022015F057FD03201021224615F052FD0420012104AA15F04DFD9DF8C8
:202510001000012803D09DF81000032807D1012014F058FA02460620014615F03DFD38460E
:2025300007B0BDE8F08FC0467F0500202DE9F84F040004BF002015F0B5FB04F1500941F688
:202550002300D9F8006030800021718017F062F800F57A60B0600221822030737173B068B1
:20257000217E2061B1730020F073D9F80410087D022804BF002015F095FBD9F80400007D26
:20259000012802D10020002104E083280CBF0620022020213074717404F1240BD9F8040089
:2025B000DFF878834178480615D5D8F83410486902689BF80500511C00EB4000095A718293
:2025D000607DC10604D5E07F40F04000E07702E040F04000607506F158050020287104F11F
:2025F00030009BF81A10890001F00401297128614FF01E0A607DC10644D506F1300030625F
:20261000D9F8040041788A060BD5617D01F0FE016175407810F0030F03D1E07F00F0FE001D
:20263000E077607D14F00CF90246A275521C307CC0F38001002392B200F0030013F078FAD1
:20265000A0831E23A08BE27D00F5FA7100F5FA7090FBF3F34A430AFB13006283C0B208B197
:20267000C0F11E008018A183608380B2B168C03001EB8001A9600220E871E17F41F0080116
:20269000E17714E000203062607D40F001006075D9F804104A78510744BF40F00200607540
:2026B000607D14F0CDF8A0750020A860E871A07D217D60F3050106F1880021750170032110
:2026D000627D8170427006F128079BF81A10890001F0040141F0030181709BF81B20D20040
:2026F00002F00802114381700021C1708160BBF81C00C0F30B00ABF81C00D9F80410CA7DDE
:2027100040EA0230ABF81C000022617D01F0FE0120460AF0A3F940F61200B0830021F18392
:20273000A020706207213970607DC1064CBF00200220787041F62401E07D788039810020C2
:202750007881B168608B01EB800139610220822139757875002094F8211001F03F01B975C9
:20277000F875D9F80410887D012818BF022804D100F07F00401E002104E083280CBF062085
:202790000220202179763876D8F8340041690A689BF80510501C01EB4101405A7883002111
:2027B0006961D9F80400417811F0030F1BD014F0E7FB6861D8F818000078C1074CBF1021A0
:2027D000002182074CBF2022002243074CBF4023002300074CBF802000201143194301432F
:2027F00041F00F01297600206876D9F80410887C00F0030068769BF81A10890001F00401F5
:20281000084368769BF81B10C90001F0080141F01001084368764249087838B1687E40F089
:2028300040006876287E00F0FE002876E07F14F007F884F8200020460AF004FBE07FC106B5
:202850003AD5D9F8040094F820204178521C88074EBFD21E9BF81F008218387EC0F38001CF
:202870000023D2B200F0030013F062F9ABF80000BBF8000000F59671C1F11E0291FBFAF1B5
:202890000AFB012A8BF804A0D9F8042051788A074CBF00214FF4FA710818ABF80000ABF842
:2028B0000200BBF800209BF8040039698218C03201EB8201022001E000210020E961E87613
:2028D00004F13000A862D9F804104A78687E510747BF04F1380140F02000124900F0DF0026
:2028F000E9626876022294F82000A17F60F30501A17740F60B00B8840021F984F96229702F
:202910006A7094F845006880D9F804104878810744BF012068800020BDE8F28FA0B4010040
:20293000784E0020D04700202DE9F84F0E46700688B026D5DFF848231078002109F05AFFD3
:2029500004001ED0DFF83C0301688847054616F097F86168884204BF40F2014016F056FE24
:2029700000202072201D10F0C5F8C7490A6828469047204615F090FEFF224321204610F0F0
:2029900045FEF0070BD516F07BF828B100218160BE48006800B1804786F001006CE1B00758
:2029B0000FD500210023069105910491039302910191009101223C2016F024FE86F00200B2
:2029D0005AE11E277007DFF8C88240F19F80B1480078002107918B4609F00CFF0446AE4840
:2029F0008178FF2904BF002015F05CF9A07A15F005FF0546606D807A95F82E91022818BFE7
:202A1000032805F5947A06D108F10D0016F0F6FD08B908F1070B5146484616F0EBFD88B383
:202A3000606D807C002818BF012804D14146504614F02AF904E05246494640460FF0B0FC40
:202A5000FF283ED007FB00F908EB090706225146F81D15F097FD18F8090040F00209F81D5D
:202A700007900622616DC87A00F0010085F82E0107F1010A606D00F10C0105F5947015F009
:202A900081FD1EE05146484615F01CFEC8B15246494640460FF084FCFF2812D0474308EB3B
:202AB000070404F10D0016F0A9FD40B904F10D0016F0A4FD002804BF607F012801D149F0AD
:202AD000020905F12C004B46017806914289120905920122698C0491C0880799029140082B
:202AF0000390CDF804B0CDF800A00020A97916F089FDD5F89C0169498842A8790CBF002194
:202B100001210DF06DFA86F00400B5E030060FD50021002306910591049103930291019135
:202B3000009101223B2016F06DFD86F08000A3E0F0045BD55A490C6808F10D0016F05EFDEB
:202B5000002842D108F1070108F10D0016F04EFD3BE0606D4178480704F13E0523D5287812
:202B700002281EBF0328687801282DD1697804F1380240460FF014FCFF2814D0784308EBAE
:202B9000000909F10D0016F039FD60B909F1070109F10D0016F02AFD062209F1070104F16B
:202BB000380015F0EFFC2878022818BF03280BD108F10D0016F022FD30B9062208F10701F8
:202BD00004F1300015F0DEFC2468002CC1D135484268354800784FF4805112F033F810B179
:202BF0008E200DF04DFF86F4805045E0B00505D516F010F82D4901200860FEE7700504D590
:202C100008F0F7F886F4806036E0700405D581200DF036FF86F480402EE0B1042BD5244CBF
:202C3000206810B1002015F03DF84FF0FF3020600020204C0EF032FF216851F8202F684669
:202C500090471D49086B4A6B24681C4B0090019202936B46C86A1A4A0392ADF81000256836
:202C7000184A19491948A8471949086004F082FF86F4005000E0002009B0BDE8F08F00BF8B
:202C9000C5260020900A0020940A0020204F00203C210020C6260020684E0020FF32010081
:202CB00098260020784E00206E4F0020FC002043044F0020F04E0020C0080020718A01004F
:202CD000818A0100E8240020D80B002088490020EC4E00202DE9FC47B44CB54D2678DFF88E
:202CF000D482B54FB549002E4FF4A05900F01F81072E14D0092E18BF0A2E00F01A810B2E4F
:202D100018BF0C2E00F029810D2E00F0EC80112E5CD1AB4A1078002109F06CFD002878D085
:202D3000C5F80080426D5378016DA64CDFF89882DB065ED50B4641F2044EB3F802C0F445EB
:202D50001FBF5E8B7645B3F832A0F24506D041F20A4EF4451CBF7645F24502D1A7F800E074
:202D70004FE0002440F2FE364FF0180C0CFB04FC03F1020E3EF80CE0A7F800E0BEF1010FBC
:202D9000F2D0BEF1000F12D0AEF1020EBEF1010F0DD9BEEB060E1AD04FF48066BEEB0604EA
:202DB00012D04FF44066A41B01D0A41E012C40F2DE80241FFBD040F2FA36A41B00F0F18099
:202DD000641E00F0E680E11E00F0D980A7E0B3F800C040F6010EF44540F0C980641C022C2C
:202DF000C2DD57E0981C20F80C900FE001680A710CE0488E388041F20441401A01D0801FF6
:202E100001D12C6046E041F206403880C5F8008040E06E498978FF2911D0C5F80080084644
:202E30001C226B4B50431A68941C235A3B8013F47F4FF4D040F204441B1B012B654976D91F
:202E50004FF47F741B1B15D00A3B012B17D940F6F6341B1B032B84BF5B1F012B12D99B1E5F
:202E7000012B64D940F2FD341B1B0BD05B1E012B05D909E0921C41F20143135202E0941CDD
:202E900024F80090296005E0002014F00BFF8520FEF77EF8BDE8FC474F480078012109F0B8
:202EB00053B94E4C4E4A25684E4800680023CDE9002355F8089F4C4B0222C8474B49088063
:202ED00035E0092E4ED14A490A685089002849D04849087810F01EFC0021002016F082FB69
:202EF0000020207023E04888388002280DD940F20442801A1BD040F6FC72801A05D0083827
:202F100015D04FF47F72801A2CD1887B801CC2B2B52AA8BF662088730020488007E0002028
:202F300014F0C0FE8420BDE8F647FEF731B8BDE8F3874888388010F47F4FFAD040F20442A0
:202F5000801AF4D040F6FC72801ABAD00838EED04FF47F72801AA4D004E04888388010F48B
:202F70007F4FFAD0002014F09DFE8520DBE7807B012818BF042801D0A7F8009046E7807B34
:202F900001287FF42FAF981C41F2024120F80C103CE75278D00647BF0022886D0022C86E11
:202FB00024E7002014F07EFE8320BCE76F4F0020204F0020718E0100504F00202C25002073
:202FD000C5260020A908000025590000684E00207C260020ED4100006E4F0020F04E0020A6
:202FF00002000080EC4E002059330100424F002084260020714F00202DE9F04F09AFADF152
:203010003C0D08900A92388809911E46ADF81800101C08BF002000F07581017800274FF0D0
:20303000010B401C4FF0FF39B846DA460A9061E1252940F056810178401C0A902D2918BFB6
:20305000ADF8068004D10178ADF806B0401C0A9030291CBF4246434604D10178401C5A4607
:203070005B460A902A29CDF800804D4617D1049330680A9BCDF80890C01C20F00300001DB5
:20309000306050F8044C1978002C009403F101000A9018D5ADF806A06442009413E0444629
:2030B0000AE0600000EBC4004018A0F130040A9801780094401C0A90302901DB3A29F0DBE2
:2030D000CDF8089004932E2929D10178401C2A290A9011D13168CDF80880C91C21F0030117
:2030F000091D316051F8045C002D48BF454601782B46401C0A9011E0454643460AE068006A
:2031100000EBC5004018A0F130050A9801782B46401C0A90302901DB3A29F0DB02930AB19C
:20313000224604926C2904D04C2918BFADF8048004D10178ADF804A0401C0A900BA8CDF89E
:203150000C800FAB07906429059300F0828069297FD0BDF818C075296DD0782969D06F29B0
:2031700065D070294ED063293ED0732922D00A98401E0A90099801281AD966490C68B5F10B
:20319000FF3F03D0A84288BF6D1C05D86FF00041814294BF0D1C099D029508A80AA9324680
:2031B0006B46A04709993F18091A0398099165E0454617E03068C01C20F00300001D30601B
:2031D00050F8040CBCF1010F014608B94FA00146079115F03BFB0390B5F1FF3F4FD0A84239
:2031F0004DD9039528464AE03068C01C20F00300001D306010F8040C8DF82C005D46039531
:2032100058463CE0082035680490E81C20F00300001D306050F8041C082210230FA80EF04D
:203230001FFA401E079040210170079823E0082302E0102300E00A233068C01C20F0030028
:20325000001D306050F8041CAA42BCBF2A1C04920DE03068C01C20F00300001D306050F89D
:20327000041CAA42BCBF2A1C04926FF009030FA80EF0F6F907900599081A0390009C241A08
:20329000BDF8065000945DB906E008A8202109AA13F0D1FF7F1C009C641E0094F5D503985A
:2032B000401EB0F1FF3F03900FD1BDF8060001281CD10098401E009018D408A8202109AA67
:2032D00013F0B9FF00987F1CF4E70798017809AA08A813F0B0FF0798401C079003987F1C20
:2032F000DEE708A809AA13F0A6FF7F1C0A980178401C0A9000297FF49BAE089808B141467D
:20331000017038460FB0BDE8F08FC046286E756C6C2900C064A60100BB482DE9F84F002569
:20333000BA4CB849056094F8E200002800F06581012800F02F81B64E02283CD0032840F047
:203350005C8151F8250CD4F8B8100029A0F5C060C4F8D400B8BF49420028B8BF404281421E
:2033700026DA4FF08057D7F8A4014568B4F8BC0030214FF47F42082300903046A847D7F85A
:20339000A4014568B4F8C00004214FF4F802122300903046A847D7F8A401B4F8D0704568C6
:2033B00020214FF440620A2330460097A847012584F8D8501CE151F8258C15F02BFC2F464C
:2033D00000B901273946934F38680028FCD0B146012609F10409D9F82CA03E6009B115F0E8
:2033F0001FFCCAF30720C4F8BC0015F013FCAA4600B9B2463B68002BFCD0D9F800B0BAF1CB
:20341000000F3E6001D015F00BFCCBF38440C4F8C00015F0FFFBAA4600B9B2463B68002BA6
:20343000FCD0D9F81C90BAF1000F3E6001D015F0F7FBC9F38120C4F8D000B8F5C061C4F8A0
:20345000B81000F09C8094F8D80068B9C4F8D410D4F8C000C4F8C800D4F8BC70C4F8C4706B
:20347000D4F8D030C4F8CC30D4F8D400D4F8BC30002854BF02226FF0010204F1C8010F686A
:2034900000EB40008018421000EB927207EBA2000860D4F8C810C4F8C43000291CDD1E295F
:2034B0003CDDD4F8CC0030B93429B4BF15391E21C4F8C81025E02A29BABFD4F8C8000B38C9
:2034D0001E20C4F8C800D4F8C4003F28B4BF401C3F20C4F8C4001FE0D4F8CC00032812D0D1
:2034F00011F10B0FC6BFD4F8C8000B30301CC4F8C800D4F8C4000028C4BF401E051CC4F806
:20351000C450032508E011F1150FC6BFD4F8C8001530301CC4F8C800C4F8CC504FF0805735
:20353000D7F8A401B4F8C43030214FF47F424568374800930823A847D7F8A40104214FF45D
:2035500000321123456832480096A847B4F8C860D7F8A40104214FF4F802122345682C4849
:203570000096A847D7F8A40120214FF440620A23B4F8CC60456826480096A84701E084F81A
:20359000D85040F2FF50404502D8801C40452FD2082030E051F8251C1F4F4BF2F5204843E4
:2035B000060A3868C0F3814001280CD11B4800680068804712F054F915F038FB3111C0103E
:2035D000484306EBE03694F8E50030B91448006820F07F403618760801E084F8E5501148A5
:2035F000310C0660012741600F4D8760287808B90B2000E0052084F8E40004F0A7FFBDE8DC
:20361000F88FC0462D400C402C500C404C04002000A00C4000800C40B43F0050EC01001024
:20363000102009403C600C40ADA40100C2480278112A00D070472DE9F047C04A1078002181
:2036500009F0D8F804000AD1002014F02BFB002014F028FBBDE8F047FF20FDF799BC04F1E8
:203670004C0898F8000008B90121E172451C88F80050E9B2E07DD8F80490814209F1400A8C
:2036900024D299F80E00401C89F80E00D8F808104A7AD9F80810520802F0010282F0010241
:2036B000101889F80E00A08B01EB8001C9F80810627DD30609D5628B98F8003000FB132061
:2036D000C03001EB8001CAF8201032E104F1280609F174074ED1A07F3875E17F7975D8F8D7
:2036F00008205278930710D5E27FD30604D5C01E387501F0EF0179750020386089F8730030
:203710000022797D01F0FE010EE1910607D4F08B00B1F07EF875F08B00B1306AF861D8F83A
:2037300008004178C8070BD5F18B00291CBF306A002805D0F861B07E884238BF0146F975F5
:20375000E07FC1060CD5D9F83800317800EB8100C9F83800A18CC03100EB8100022101E0AD
:2037700000200021386089F873100022E17F01F0FC01D9E0D8F808104978CA0716D5787DD9
:20379000397D00F0F700891E01F03F0182075CBF891D40F00200420644BF491E00F0BF00C7
:2037B000787539750020F861F875C2E0A28C2D1AD9F838008907EDB200EB820075D5012D44
:2037D00041D1C9F83800A07F00F03F00A0773875801EE17F7975387501F0F7017975D8F87C
:2037F000082053785A0704D5801F387501F0FD01797500233A7DF17E9AF8000002F03F0255
:203810008A18521CC0F3800192B200F0030012F08FF900F5FA70A0841E21A08C90FBF1F138
:203830008AB2797D01F0FE01204609F017F9002189F87310F08B00B1F07EF875F08B00B18F
:20385000306AF86175E0022DC9F8380026D1E07FC10706D5387D811F3975787D00F0FE0009
:20387000787500233A7DF17E9AF8000002F03F028A18521CC0F3800192B200F0030012F0C0
:2038900057F900F5FA70A0840022797D01F0FE01204609F0E3F8707FAAF81A00707F401C0D
:2038B000451BE8B2012812DD07E0C9F83800E17F707F451BCA06E8B209D5A28CD9F83810C8
:2038D000C03201EB82013960022189F8731080B3F969F27EE37FA57F0A445908FA614FEAE9
:2038F000410AD8F8081049784A0748BF2AF0020A890748BF2AF0080A012807D1307FF87566
:20391000002139602AF0100A89F87310504612F097FF05F0C00500F03F0005433D7587F815
:2039300015A000220AF0FC012046BDE8F04709F095B8BDE8F08700BF6F4F0020C52600205D
:203950002DE9F84306460D46707801071DD4D6F80310B44821F07F41203981423FBFD6F8F0
:20397000061021F07F412039814228BF112033D2B01DF11C88425CD3B07A002818BF0128F2
:2039900003D0022818BF032853D1B07C002818BF012803D0022818BF03284AD1307D0128B0
:2039B00018BF022803D0832818BF032841D1707A10F0070070723CD03078012108F01AFFAA
:2039D00004000AD1002011F023FB044615F0A0FA844214BF07200D2021E104F15401002077
:2039F0000E606072227A012A08BF0C20F4D0E075727A012383401A4208D0E27D521CE27579
:203A1000D2B2012A04BF00F125022276401C0328EEDB7078C20619D5317D012909D110289C
:203A300011D012280CD0132804D0152804D01D2804D09FE0002007E0042102E0012003E0B5
:203A50000221A17360E00320A0735DE0FF22A273307D02281EBF727802F003000328E8D0C0
:203A70001307E6D408B19006E3D4520707D516F10C00DED0F07A002818BF01287AD1002069
:203A90006075E077707810F0030F26D1207D00F03F0020757078820605D44868002804BFB4
:203AB0008868002801D018216175707881060DD4307D832818BF032804D118200121607550
:203AD000E17703E0607D40F0010060757078410716D5E07F40F0020011E0217DC0074CBFAB
:203AF0000120022001F03F0141EA80112175182060750921E1777078410701D50B20E077D9
:203B1000207D00F0C000A07796F913007F2806BF454800780FF04EFD04F12907387045B111
:203B30004248416B48693978026801EB4101505C2870B07ADFF8F880DFF8F8903E4D002876
:203B500018BF012809D17875B07AC10758BFC8460622414604F130002FE005F10D0015F08C
:203B70004DFDB8B1B07AC10754BF4946414614F0A9FD08B9122052E0B07AC10754BF494604
:203B90004146062204F1300014F0FCFCB07A00F0010006E00622E91D04F1300014F0F2FCFF
:203BB00003207875B07A00F001002870B17AC80758BFC84606224146681C14F0E3FC707815
:203BD000410729D5B07A022818BF03281BD1F17A06F10C0201F0010128460EF0E1FBFF287B
:203BF00011D01E214843054405F10D0015F006FD48B9E91D05F10D0015F0F8FC0120B87565
:203C10000622E91D04E0F07AB875062206F10C0104F1380014F0B6FC012060720020BDE824
:203C3000F28300BFE0FFFF00714F0020A0B40100344E00202C4E00203C21002010B54FF46C
:203C5000DF62234923480AF07FFF23480021017001220223027243760322204904230A7023
:203C7000CB700521417707231D491E480B7008240C72062209210270017210BD2DE9F041B5
:203C9000194A1A493820136854689568D6681769D2F814C0D2F818E0D2F81C800B604C6027
:203CB0008D60CE600F61C1F814C0C1F818E0C1F81C8020322031401EE5D1106853689468F0
:203CD000D26808604B608C60CA60BDE8F0810000A8AD01004804002151030021C10300213E
:203CF000980300217403002198A6010000C000212DE9F047DFF8AC916B496C4E89F80000F0
:203D10000922002008600D2369484FF48C7102704380818067480660B77E67480770FF2FEB
:203D3000F17E417008BFFF29327F8270737FC370B57F0571F67F467114D1FF2A08BFFF2BC7
:203D500010D1FF2D08BFFF2E0CD15C490A7802704B7843708A788270CB78C3700A79027106
:203D70004979417156490278564D574EDFF85C810A7043784B7082788A70C378CB700279D5
:203D9000534B0A7140794871FF2028706870A870E8702871687100204E490880776B4E495F
:203DB000787808703A784D491A70B87808707A6910794B4A411E1170F8784A4988F80000AD
:203DD000B869086008B913F06DFFF869464C206008B913F067FF2068DFF810A10168884735
:203DF000226852F8041F5046884741484149CAF82000CAF82410386A3F49086008B913F016
:203E100051FF786A3D4C206008B913F04BFFB86A3B49086008B913F045FF05F03FF90728D7
:203E30000CD108F0E5FE99F800004FF4804108F08BF9BDE8F047002013F034BF31480168D5
:203E500088472268074610688047216851F8042F00209047F16898F800000A882A4B2B490D
:203E700002431A8038460A6890470C21284815F0B5FB284800680E2114F0E2FD284615F0DD
:203E9000A9FB15F0A3FB4FF6FF7223488280002101604FF4005199F80000BDE8F04708F02D
:203EB00053B900BF6E4F0020044F0020B63F0050604E0020084F00202C4E0020E812005069
:203ED0003C4E0020344E0020A0B401006C4F00207B4F00200C4F00206D4F00206B4F00203B
:203EF000724F0020F04E0020F44E00207C4B0020A18A0100C18A0100F84E0020FC4E0020E2
:203F10008C260020900A0020544F0020940A0020F84D00209C260020442600202DE9F84F56
:203F3000DFF8B4920F460446F80B80F00981A54EDFF88482B80F80F0BA80B80880F0AE8019
:203F50003809C0F02F81082014F082FE002840F0A080802014F07CFE002840F09A8068464E
:203F70000AF008FD012803D10098002800F0918090480078002840F08C8000250124E8B2DC
:203F900014F01EFC48B1837A3BB1847290F9090004FA00F0C0B212F04DFA6D1C032DEED366
:203FB00045460320287405F1AC0014F075FF83480168002398461A46036050F8081C804960
:203FD00040F8088C05F1340014F07AFF404606F000FD3068006B8047A968401A010BA86993
:203FF000C1F1FF3282422CBF08444FF0FF30A861287F20B1E868A969B1EBC02F25D913F0F6
:2040100001FE414600B12146081C1BD06E4840F60901018043464380417B04F00F0221F04E
:204030000F010A434273017B03F00F0621F00F0146EA01020273436014F0AEFC418811F4F2
:20405000406FFBD02C774346AB6111F027FC5F48444641460460022013F03EFB022012F0DC
:20407000B5F9112009F06EF8287818B96868383014F03AFF5648007810B90E2009F062F8AC
:20409000687F18B16C77052012F0A0F9514868612C740EF00FFC27F0080783E007F092F9A7
:2040B00045467435286808B927F002077AE014F0FDFEB3468246DBF85400016804208847AE
:2040D000D8B1207CC8B1454608352868A8B10646DBF80000E568006B8047801BE060000BFD
:2040F000E060A84202D240194008E06040F6C41181422CBFB0F5FA7FE160504615F062FAC2
:2041100011F0E6FE90B1A56920466FF4807100224FF00073A847464606F16C052868002832
:2041300008BF47F0020701D00EF0C4FB2046646900214FF080630A46A04727F0005731E0AE
:2041500014F0B4FE49460E6846B306F1280106C90A234FF0E0450B40154008BF002B1DD19B
:2041700006F1280191E8300006F1280393E8060006F12803AA43A14383E8060015F022FA3E
:20419000B16869B1002D08BF002C09D030692246B6F93C10B4682B46A04701E015F012FA81
:2041B00027F4804727B148463946503014F0A8FEBDE8F88F091C0020701A0020141004407B
:2041D000B12E01008C0100104825002000000460A6A5010065C60000F01A0020A2488078DE
:2041F000FF2800D170472DE9F84F14F007FB054605F217100178012908BF417800F0A780FA
:2042100005F17400817B022903D105F174010020887305F59274E18911B1207B07F094FF52
:204230006889DFF848C2DFF8489228819CF807209CF80A009CF80C109CF80B709CF80D3059
:2042500000EB02088844B84405F58D779844BB885B1CBB803E8846443E80B7F802E0864459
:20427000A7F802E04FF01C0E2368E3B1D9F8006095F806B006F10E0A0EFB0BFB0E361AF83D
:204290000BA033F81AB0C34423F81AB095F806A00EFB0AFA16F80AB003EB4B06B6F84AA0A3
:2042B0008244A6F84AA0002A04BF9CF80B20002A05D1002904BF9CF80D10002926D0298986
:2042D000E88941180026A9812E74287F012804BF688CE8839CF8010068B10121297705F1BA
:2042F00074018878002804BF887B002803D1087F08B9688CE883207D002832D0022804BFF4
:204310009CF80B00002827D1002129E0EA8340B1297F012600200129287406D1688CE8835B
:2043300003E0F888401C0226F880A8892989814206D08842CED2081A41F2AB029042C9DAB1
:20435000287C08B1052901D0082100E03E212846BDE8F44F13F0C2BB9CF8090008B102213A
:20437000217544489CF80F2001682868D30709D5DCF81020C26001F11400A97949010022DD
:20439000425010E0AA791431520189582161D9F80020A97902F108030EFB01F15A58C2608D
:2043B0000020E8832877344841690A78900703D59CF80E00802800D1812005F1740A8AF8FA
:2043D00000002846FCF7ACFF01284AD0012128460CF08AFC284613F035F9FDF761FC012853
:2043F0003FD000F043FEDFF89490D9F80000C0B3B9F80400AA7990421CBF4FF6FD7188422C
:204410002FD11F48007A14F04BFB040029D02670A879608095F83910217195F89601607170
:204430009AF90010A171A4F808807888608114F027FB050005D1FF204FF0FF31207321610E
:2044500009E02878207315F0E5F80146A86815F0B5F8800820612046D9F80010BDE8F44F0D
:204470000847BDE8F18F00BF684E00205C4D00207C26002080260020A0B4010044260020F3
:20449000400C00202DE9F84F050046D0DFF8509299F80000092818BF0A2804D00B281CBFC2
:2044B0000C280D2801D1212018E1A878002108F0A1F9040008BF4220F6D0A8788949087047
:2044D00004F14807F868417801F01201022902BF786900280C2012D0607AF0B1A07B0128A9
:2044F00004D1B5F8030008B1812816DA6878402813DA20460AF076FBB86808B90720EDE0FA
:20451000BD61287801281BD1A07B00281CBF0128042815D17448007808B91220DEE07349BE
:204530004A78824208BF0920F8D004F1220004F13801427F802006F05DFC08B10B20CDE0A7
:20455000687808B91120C9E02878694EDFF8A4A1DFF8A4B1012840F08980207A00210128EB
:2045700021734FF00A0811D19BF80000402111F08BFEB5F8030008FB00F1402013F03CF9AA
:204590000100E0D1B96968794871A6E001202072E172617309F0BCFF6060DAF80000804730
:2045B000564A0146106802E06268426000680028FAD1084631688847616851484861F868C2
:2045D0004178C80605D5204601F0B4FD01000BD084E00020608414F02BFA84F821002046F2
:2045F000FDF7A4FF010079D1F8684178C8071CD504F14206B18800291CBF3868002814D0CA
:2046100032788A4211D20F2013F08CFD68B1F86801788DF80010B088ADF801000F20317839
:204630008DF80310694613F05DFB99F80000002853D13449087800281EBFF868417811F0CF
:20465000030F1CBF304812F087FF112089F8000001212172B5F8030008FB00F1402013F0EF
:20467000CBF801003AD100F001FD36E0207AA8B3DAF80000804705469BF80000402111F089
:2046900003FE0020207214F03DFB012804D014F0F7F96168884217D11C4A1D481368006801
:2046B00053F8384F0021A04740F2014014F0AEFF18491948086001219BF8000007F044FDD5
:2046D00031682846884708E0204612F085FC316828468847204613F0DFFF0020BDE8F28FC0
:2046F0006F4F0020C42600207B4F0020684E0020940A0020900A00206E4F002098260020CF
:2047100009570000784E0020CC470020F04E0020EC4E0020204F0020255900002DE9F04FF6
:204730008246DAF80070DAF804600C465FEA0208ADF11C0D14BF00214FF0FF31DFF84492AD
:20475000484614F0BDF8002818BF0B2040F01681002590488D4905708B48FC60524614F0FE
:20477000AFFB317B272014F0ADFBB8F1010F07D06570022012F0DEF8062012F0DBF801E0A5
:20479000012060702078012840F2AB80801E012868D9801E012833D9801E012800F2DF8007
:2047B00014F084FB83464FF0805000F5EE77D0F8DC01A378466A009321782846062908BF34
:2047D0000120019001200290A068228AE1686368B0478146584614F0F5FEB9F1000F40F060
:2047F000C080B8F1000F02D013F06CFE02E0504611F06EFE002800F0A4803868806A2AE0BD
:2048100014F054FB83464FF0805000F5EE77D0F8DC01012306680093A168A27860682478B2
:20483000AC46042C08BF9C466346B0478146584614F0C8FEB9F1000F40F09380B8F1000F1A
:2048500002D013F03FFE02E0504611F041FE002877D03868406880474D49C1F8B0510D6043
:2048700081467EE014F022FB83464FF0805000F5EE76D0F8DC01E38A87690093E068019043
:20489000208B0290A0780390207D04900121059122782846022A08BF081CE1786268A368EA
:2048B000B8478146584614F08DFEB9F1000F58D1B8F1000F02D013F005FE02E0504611F00A
:2048D00007FE00283DD03068006A80475FEA000947D13068C569A168E28A2369E078A8474D
:2048F000BEE714F0E3FA83464FF0805000F5EE76D0F8DC01E38AC7680093E0680190208B99
:204910000290A0780390207D2946049001200590257805B9014608466268A368E178B847D7
:204930008146584614F04EFEB9F1000F19D1B8F1000F02D013F0C6FD02E0504611F0C8FD81
:2049500008B914201AE03068406980475FEA000907D1306802692169E078904780E74FF0C4
:20497000FF39B8F1010F05D0022011F02FFD062011F02CFD034814F0B7FA484607B0BDE8D8
:20499000F08FC04648070020800700207172010050450240BB2600202DE9F24F054684B0DA
:2049B0002868D0F80490D9F8080014F003FE002805F59A7B40F0058128680169049814F096
:2049D000FDFD05F1820680463078002805F12E0440F6C41A00F0878070882989401E80B24C
:2049F00014F030FE0746307802280CBFBBF83000A088784300902868016900980AFB00118D
:204A1000049814F0D7FD002868D07F1C03973078009F039A02280CBFBBF83000A088C719B9
:204A300000230AFB07F0029201930090296809694118049814F0BEFD90B100983189A8EBB2
:204A500000080AFB01F0B8FBF0F200FB1288B8F1000F18BF521C5143019103995218029261
:204A70002989029841186981F18801983278CF19C719012A48D105F18601284613F042F9A6
:204A90007089688400212977E983E88969894118A9813289A188B0898A4204BF23899842DC
:204AB00002BF7189E388994207D0000900907389A9795208002014F0CDFDA088ABF8300014
:204AD000317921703089A0807189E180B0892081284613F035FB0220307015E03178012952
:204AF00018BF13F0DFF8A08829890AFB00F0B8FBF0F700FB1788B8F1000F18BF7F1C791837
:204B10006981BFB2A08847432968344A08690AFB0700C9F808000B78802B10D1C860D2F822
:204B30003080A388D8F8000043436420B3FBF0F3D9F814000AFB03F3A3F5966343610B7887
:204B5000402B36D1AF614FF4C873688A4743B7FBF3F0401C6861D9F80830181AC9F808000B
:204B70006B69DBF8000000EB4300D9F8143058611B4833780068022B0CD1AB795B0100F191
:204B9000140656F803C026780AFB06CC00F1140646F803C0AB79126B00EB4316A3881068D1
:204BB00043436420B3FBF0F30AFB03F0A0F59660F061D9F8080088602846E17AA17210F0D9
:204BD00011FE6989A88914F03DFDE989814238BF0120ABF82E0005B0BDE8F08FA0B4010009
:204BF000802600202DE9FE4F8A4C617811B9002013F058F814F00EFD06464FF0000806F6F2
:204C1000C4160027844DDFF8149211E0384613F0F5FD417951B12A68817902F8081008F17E
:204C300001015FFA81F83146FFF7B6FE7F1CFFB299F800008742E9DB6178884505D000206A
:204C500013F030F88220FCF7A3F96078012840F0C380002701E07F1CFFB299F800008742C6
:204C700080F2B480384613F0C9FD064670790028F1D02968B0790A7890421CBF002013F00D
:204C900011F8B079A0E0286810F8090013F0B6FD00684268DAF808109068814204BF3E46FD
:204CB00009F1010900F0A680A8E0286890F800B001224FF4D0710FE0636803F5B176835C1B
:204CD00001FB03F901FB0BFE36F809C036F80E60B44538BF9B46521CFBB29A42ECDB4FF660
:204CF000FF700CF079F80646584613F087FD4C490068D0F804A00868D94630F81920606836
:204D10004FF4D07300F10E0103FB09F3C85AB2EBD00F52D2720840F6C4104243009200277F
:204D3000404A0190029217E0584613F067FD01680A78802A03D1DAF81430009A5A61097863
:204D5000402908D1029980790A6802EB4011009800F5A060C8617F1C47452EDA2868C05D2B
:204D70008345F8D001464FF4D073594363685A1803F5B173D289595A53088B4202D2521A5B
:204D90009045E8DA13F03AFD01684A68019B9168DAF808207008A1F6C41103FB002014F082
:204DB00009FC0028C0D01E48006830F81910491C20F81910286810F807B019480268002126
:204DD0005B4622F813105846BDE8FE8F002012F069FF8220FCF7DCF8617828680DF0ADFA15
:204DF0002868007813F00AFD00260068D0F804A04FF00109771CC145FFF645AFF6B2002EF6
:204E10001CBFF8B200287FF450AF286890F800B065E700BF684E0020004F00207B4F002061
:204E300090260020802600202DE9FE4F8648DFF81C920278002A41D0D21F012A4ED90A3AD4
:204E500040F0FA80824C2078002107F0D3FC04001EBF606D407810F00C0F2FD0C00603D52D
:204E7000216D886D026802E0206DC16E0A6802F108050622A91C684613F084FB287800F078
:204E90000F0105291AD16946C0F3801014F0B2FB002813D04946684611F0F6FE054649461F
:204EB00004F1380011F0F0FE85420DD0606D4178C80604D440F2014014F0A8FBC2E0607B5F
:204ED00040F002006073BDE01E20454309EB050006226946C01D13F055FBB3E0DFF874B1CB
:204EF0009BF80200FF28F8D013F088FC804608F16C06706814F05AFB00900179032907D127
:204F10008068047814F0030403D1706814F04AFB98E04578032C00F1020A08F2171706D1BD
:204F300098F8940000284AD0042D11DD1CE0A5B1307868B108F1F400017801290DD1424ACF
:204F50001178072904D0082904BFC078012804D13D2179700120387074E03F490A78012AF1
:204F700070D098F8940050B32D1FEDB253462A46214640460AF030FB38B93D20787001215C
:204F90003970484611F097FE5CE0344801688847814698F80610DBF804204FF4D0704143D9
:204FB0005018002280F8412108F59E700168807949080CF04BFE2A490A6848469047009997
:204FD0000020032C886016D0264841690878820707D5C0074CBF0320002040191AF8000027
:204FF00000E08120307223469BF802002A46514604F0FEF818E09AF800001A2803D21A4A8A
:20501000115C8D4205D0B870072140460CF010FD07E00D480178082903D051464046FBF7C8
:2050300005F850460EF0FAFD706814F0BBFA0099404610F0D9FF05E0002012F033FE862072
:20505000FBF7A6FFBDE8F78F6F4F00203C210020C5260020684E0020794F0020900A0020A0
:20507000940A0020A0B40100D8B401002DE9F84F894E716884B0009121B905B0BDE8F04F3B
:2050900014F08CBA0978DFF81492DFF81482854FDFF814B201291CBF0229042941F64C5AA0
:2050B00004D0402918BF802970D0EBE013F02AFE0028FAD00098007805F0ACF8054613F004
:2050D00089FD04469BF80100002841D0FFF78AFD13F094FB0290016800914968019194B100
:2050F000009928460CF07CFD02280CD029780129DBD118B914F08EFA5044A0600120B07075
:2051100011213970B8E00098017880290BD108203870019998F800204869012A0BD0D9F8D4
:2051300028100A780DE007203870019998F800204869012A02D10121C17203E0D9F82810AF
:205150004A78C2720298817900988BF8021094E0002DAAD000992878A94208D1012802D174
:20517000002C03D194E0002012F09CFD84E001289BD1002CF6D014F04DFA00F5C241A068BA
:20519000A83114F017FA002872D16DE09BF80100002859D0FFF726FD13F030FB044620685B
:2051B000019045689BF8020013F028FB039013F0AFFD10F0070F21D0B07805F02BF80090CD
:2051D00013F008FD0290C8B1019900980CF008FD022813D000990A78012A0CD128B914F064
:2051F00019FA82440298C0F808A0112139700120B070009841E0002012F054FD0398A04207
:2052100020D00199087880280DD10821397098F800206869012A02D10121C1720FE0D9F888
:2052300028100A780AE00720387098F80010686901290EBF0122D9F828104A78C272A07948
:205250008BF80200019818E013F062FD10F0070F1ED0B07804F0DEFF054613F0BBFC04467A
:205270002878012814D19CB114F0D4F95044A060112038700121B170284605B0BDE8F04F9B
:205290000AF05CBB05B0BDE8F04F002012F00ABD05B0BDE8F08F00BF30260020A0B4010008
:2052B000734F00206F4F0020684E00202DE9FE4F05467B48002400680094C00905D3794855
:2052D000007810B9202011F007FA012D40F0E280DFF80092D9F8DC00012840F0D880022092
:2052F000C9F8DC0013F076F8012011F0F5F95FEA000805D00120C9F8DC0013F077F8CBE07F
:2053100013F0FAFDA34602906748684DC0F800B0A86A016801208847012804D158460CF039
:2053300079FA012000906248624FC0F800B03868112013F087FC00B10124102013F082FC98
:2053500008B144F002040F2013F07CFC08B144F004040B2013F076FC20B12868564E016B9A
:20537000308888470A2013F06DFC20B12868534E016B30888847524801260660286881696A
:2053900044F0200088474F48066013F055FC00F001010191400814D2286A81684A488847FB
:2053B0008246BAF1040FF7D0BAF1010F04D1286A42684548032190474449086820F003002C
:2053D0000860584600F088F82B683868986B8047019801280CD0BAF1010F04D1286A4268E0
:2053F0003948314690473949086840F0030008602F48066028684169204688470B2013F0C7
:2054100021FC20B128682C4BC16A188888470A2013F018FC20B12868284BC16A188888473E
:20543000274806600322C9F8DC20264BC3F800B02868416B204688470128F9D138680420A1
:2054500011F04AF90446184806603868144800688009FBD30098012802D130460CF0DAF954
:2054700013F0DEFB082011F037F907460298C9F8DC6014F08FF8164800880BF0A3FF12F0F3
:20549000B5FF57EA040018BF4FF0FF3804E06FF0040801E06FF001084046BDE8FE8FC04660
:2054B00014100940340500200C400940B8010010000222432C20094062A101005EA10100B8
:2054D00028200860800104430040034024220840A8A401004C0400202DE9F84FDFF804B28C
:2054F0000746ABF13500DFF8F0810068800880F0E28075480068006880477E490831D1F857
:20551000009000254FEA29715FEA995201F101010AD2C0F13E0210F10A0F4FEAE202D8BF30
:2055300008229142B8BF111C684BD3F87C21C2F30462162AA8BF203A1B68C3F30443162BC2
:20555000A8BF203B9A465218162A05DA12F10A0FB8BF6FF0090200E015225D4B5D4E02F0B7
:205570001F0141F4F8511980316811F0030F18BF0125C90828BF45F002050FB145F0040549
:20559000434693F90710411A052904DA9979A94208BF99886FD0DFF844E10F28A0F10F0869
:2055B00029DB08EB0011A1F1F0084FEA28210091072984BF07210091062988BF06215EF817
:2055D00021600424774604EB81043C594FEA950CA41BEE0804F0FF0124BFC4F3072631448D
:2055F0006F08AE0824BFC4F3074631446E0828BF01EB146104E000214FEA950C6F0800916D
:20561000009C5EF824E05FEA5C060EF0FF0424BFCEF3072634447E0824BFCEF307463444A0
:205630006E0828BF04EB1E64009E89B2A8EB06267143803104EB1124AAEB02010029D8BF13
:205650000121342209F0FF074A4391B24FF6FF727943B1FBF4F18A4238BF111C802889B21D
:20567000998005DA10F1800FB8BF6FF07F0000E07F20D8719D711A4800681F2918604FF09E
:20569000000008D340F2FF128A4206D24908401C8A42FBD301E01F219980134F0F390909FB
:2056B00040EAC10047EA0001CBF8FB1F0026CBF8FF6FBDE8F88F0D490D4F434608200F608B
:2056D0009B1D1870BDE8F88FEC0100103C1100506E62084024220840542600209C13005075
:2056F000082009403500094000E7A48030100940FDFDA400AC3F00502DE9F84F824A83464C
:205710001078002107F076F89BF80010044601291CBF002012F0C6FA14B9002012F0C2FAEC
:2057300004F14C064FF47A67B0684178D6F804A0C8064FF00B0841F64C592CD50AF178003B
:20575000002101808170C17001714171C18001818172C172C160A07B01281BD013F05AFFBC
:205770000AF108054844296813F024FF002811D013F050FF4844286013F008FF0B2290FB9D
:20579000F2F2296808FB12081FFA88F007FB00172F60276183E00AF1740100200884002205
:2057B0000AF19600027042708270C2708280C28002724272CAF8A0200AF1080513F02AFFDE
:2057D0002968484413F0F6FE88B113F023FF4844286013F0DBFE0B2290FBF2F2296808FB27
:2057F00012081FFA88F007FB00172F6027610AF14007607DC1064FD5287AA27D521CC0F3D2
:205810008001002392B200F0030010F091F9A0831E20A28B02F5FA731E2193FBF0F001FB78
:205830001030C0B208B1C0F11E009BB28C46801893FBFCFC00F5FA7002F5FA7201FB1C31D6
:205850006083A283C9B209B1C1F11E018A18A28380B2E17D491E92B202FB01026283608B58
:205870002A68C03002EB800139620220F877618B02EB81022A63287A18B9397809B12032E3
:205890002A63A18C286BC03100EB8100CAF8740002208AF8730002E000213962F97761682A
:2058B00070681A4A8A614860B2685078C3065CBF102088615078830703D5886940F40020BB
:2058D00088615078430704D5886940F40000886188610F4B187800281CBF507810F0030F26
:2058F00003D0886940F4802088610020B1683070087E10F0300F04D05846BDE8F24F0FF022
:2059100011B9BDE8F18F00BFC526002002000080784E00202DE9F84FDFF8F4A19AF80000FB
:20593000002106F067FF040004F1500602D112F0B9F9DEE0207A30B9204611F04DFB2046AE
:2059500012F0AAFE1EE0207BDFF8C881401C20730121E17230694079C0B1217B814215D168
:2059700098F80000402110F08FFC00202072204611F032FB204612F08FFEFF224321204675
:205990000DF044FEBDE8F14FFFF770BB04F14509002089F8070013F0F9FDD6F804C02769AC
:2059B0000146DCF803004FF00B0E20F07F4040F6C41391FBFEFE0B2203FB007702FB1E112F
:2059D00089B24FF47A604143306889B200F10805C9192960216104F122079CF80110CA068A
:2059F00018D5A17B01290AD100202072204611F0F3FA98F80000022106F0A6FB65E090F86C
:205A1000731001F0E00141F0860180F87310424941675AE080460020A8F8020008F1600B15
:205A3000217EA971607DC10606D5618B2868C03100EB8100CBF8000008F18800217D0170F2
:205A50000021627D4270C17081603888401C388080B212F0EDFF84F821000022617D01F0F0
:205A7000FE01204606F0FAFF0020E882E17D6984688508F13E0094F8211001F03F0101706A
:205A90002A68618B02EB81022A630022028299F800108183726851788A0709D5B9887980E4
:205AB0000121A27F02F03F0242F08002A2778183E07FC10609D57988286BC03100EB81009A
:205AD000CBF8140002208BF813001449087880B1387F022818BF03280BD1114F07F10D00F5
:205AF00013F08CFD28B90622F91D04F1300012F049FDFFF7BBFA4CB17068017E480605D557
:205B10005146BDE8F44F032012F0ECB8BDE8F18FC52600206E4F002000204E00784E0020CC
:205B30003C2100207FB5804D03461446084600261946A1F58062132A04D9183A33D0921ECA
:205B500022D015E0DFE812F0E4001400DD00D600CE00C500BE00B9001400AE0014001400E6
:205B70009D009200140014006B0052004B003700092907DA022805D10846218810F0DCFC9D
:205B90000646CDE00226CBE0002840F0C88013F051FD30B90CF090F80646502012F0C4FB4E
:205BB000BEE00C3587E0012840F0B980002C00F0B6800D3584E0602800D13CB9012840F05E
:205BD000AE80002C00F0AB80093579E005F178002146602212F0D6FC01206872A0E00128DA
:205BF00040F09D80207813F0CDFC99E0012840F096802078022800F39280002800F08F800E
:205C10002B4603F1080108702078022818BF301C02D11020D871012013F0B0FC80E00728FE
:205C30007DD1611C01A8062212F0ECFA33460093217801A803AA07F027FAA8B913F0FAFC63
:205C500050B99DF80C0005F025FD0646502012F06BFB0EF015FC63E09DF80C002A460121CA
:205C700002F1200529545BE0342659E0012856D1A87A21780028A97252D1207801284FD15F
:205C9000E7E7297A01284AD1022904D02078072801DB102804DD022941D1207810283ED168
:205CB000E8713DE000283AD113F0C4FC10B912F0E8FCCAE70B3501211AE001282FD1AD1DB9
:205CD000217815E001282AD12178022927DA6D1D0EE0102823D1284621461022383012F028
:205CF00051FC1DE001281AD12178022917DA2D1D297015E0012812D1217804290FDCED1CE3
:205D1000F6E701280BD12178022908DAAD1CEFE7012804D121780229D8BF6D1CE8DD182667
:205D3000304600907FBDC04660050020F8B57F4F04463868C16E0025002940F0F3801020D1
:205D500012F0A6FE39680028C86600F0E9808E6E1022214612F016FC39680878002840F01B
:205D70009080C86E00F10C02D6F8980092F800C000F001030CF0010C634518BF0023400837
:205D900043EA4000C6F89800C0F34003D2F800C0CCF3400C634506BF430803F001030023D3
:205DB00020F0020040EA4300C6F89800C0F38003D2F800C0CCF3800C634506BF830803F008
:205DD0000103002320F0040040EA8300C6F89800C0F3C003D2F800C0CCF3C00C634506BF7D
:205DF000C30803F00103002320F0080040EAC300C6F89800C0F30023D2F800C0CCF3002C08
:205E1000634506BF030A03F00103002320F4807040EA0320C6F89800C0F34023D2F800C097
:205E3000CCF3402C634506BF430A03F00103002320F4007040EA4320C6F89800C0F3802396
:205E5000D2F800C0CCF3802C634506BF830A03F00103002320F4806040EA8320C6F8980012
:205E7000C0F3C0231268C2F3C022934206BFC20A02F00102002220F4006040EAC220C6F8B0
:205E900098008A6E92F89500030718D5C86E4368C3F3C00098B1C87840F00800C870D6F82E
:205EB000981023480140C6F898103A68D06EC16821F48071C16049084900C16003E092F8C0
:205ED000330001282AD0607800281CBF7178002908D13968CA78130708D5002804BF7078E9
:205EF000002803D03868052101711CE06068C0F3800040B996F8950010F0040002D1012054
:205F1000087110E00AD00878002819BF307821783178207813F02EFB054604E0182502E0B2
:205F3000132500E011252846F2BD00BF304F0020FEFEFFFFF0B56A4C6A492046ADF1440D2B
:205F50000DF0B4FF684D0021284613F00FFB674868490560664808F0CFFB6749086070B9BA
:205F700000200090019040F2E51102900322039052A304904DA007F039FE13F0F3FA5F4823
:205F90005F4900221523009010200AF001FB5D491020002202230AF0FBFA01268DF83C60E5
:205FB00000258DF83D600FA88DF83E50564F8DF83F604FF4806200903346394610200AF020
:205FD000E7FA0DF13D0040F2024200903346394610200AF0DDFA0DF13E0040F20342009053
:205FF0003346394610200AF0D3FA0DF13F0040F2064200903346394610200AF0C9FA4349EA
:2060100010204FF0FF320AF0C3FA414910204FF0FF320AF0BDFA11F029FB207809F084FE06
:206030003C4807F07BFB05A8294628220AF0E6FD2846314605AA02F085FF304605AA0146A6
:2060500002F080FF3449354A10200AF0A1FA2178502011F019F93249024610200AF098FA63
:206070002178502011F010F92E49024610200AF08FFA2D491020FB2240F648030AF088FACB
:206090002A4910200AF084FA4FF6FD7011F088F92178502011F0F8F8009503460422244936
:2060B000019510200AF074FA11B0F0BD70726F6A6563745F7A65726F2E6300C04572726F35
:2060D0007220696E697469616C697A696E6720626F617264204C45442070696E7300C04616
:2060F000C0250020C425002000260020C825002024260020280C0020D0250020DC0A002056
:206110003531010049650100355B000029790100D57D01009C0C0020E57F0100940C0020E6
:20613000518801103181011021B10010BDF80000457600002DE9F0475FEA000A04BF0020CD
:2061500011F0B0FD0AF1500700243E68DFF8C881DFF8C89179684A7A182060430123351824
:20617000A3401A420AD09AF80E1039F811002880002118F80420AA73E97302E040F6010075
:2061900028800021698005F118006860287B00F0EF00287340F0800028739AF80E10012925
:2061B0000ED141F28830A860297B01F0F00141F005012973687B00F0F00040F0020017E0B8
:2061D000002C0CBF0221002100F0F0000843287324B913F01FFA00F57A6000E00020A860DE
:2061F000022C697B0CBF0120022001F0F00108436873641C06F15800286106F17801022C71
:206210006961A7DD9AF80E0001280EBF766300207063B068CAF8100010F0B2FEB065404887
:2062300081690878C2074CBF1022002281074CBF2023002341074CBF4024002400074CBFD6
:20625000802000201A43224306F15C01024342F00F020A70002048707A68907C00F003009D
:2062700048700AF13E004B78027862F382034B701A46407860F3C3024A7042F010000022FD
:206290008A70CA704A608A6048700AF138020A619AF80E00012818BF042813D0B86830B11E
:2062B000B0F803008870BA68D2F805004860F86830B1B0F80300C870FA68D2F80500886055
:2062D000184808610AF13002C87D174BCA6000F0EF00C87540F08000C87500F0F00040F0CE
:2062F0000600C875114A8A61187838B148780A7840F0400002F0FE0248700A700C4A937855
:2063100048785A064CBF40F0200000F0DF0048700020BDE8F08700BF409A0110109A0110CA
:20633000A0B40100D0470020784E002000204E00982500202DE9FE4F0E468246307AC106A0
:2063500093461F464FF000090CD5584613F006F9030000F0E8800A223146504698475FEA6A
:2063700000094DD130780C9D0D9CDDF8388002281AD170680178407801EB002189B24FF4B6
:206390002052891A012910D9891E3AD0491E14D0FD397AD0491E00F08180491E6DD0491EE6
:2063B00073D0491E00F09580ABE0002C2AD1F068017829800278416887E0002C22D1012028
:2063D0002880F1680A783A7000217089401C80B213F0C0F8298860B10278921C5118298021
:2063F000418979704289120ABA7041680278F81C6CE0091D298004220021781C12F092FD0B
:2064100093E0002C66D1F0680688042129803E70320A7A700DF10201304613F09BF80400FD
:2064300021D0D4F80C80BDF802204FF6FF766B46314613F08BF840B9237862683C480221BF
:2064500013F080F808B9ADF8006098F8000002280BD1D8F804100222381D12F093F82888BB
:20647000801C288001E0ADF80060BDF80000B870BDF80010090AF97057E0002C2AD1F0680E
:206490000168504612F044FA02E01CBBF0680088022129803870000A787046E0F06812F02E
:2064B00045FD80B2A042B8BF4FF007093DDB844208BF002205D008EB04028242B4BF42465C
:2064D000021B2A8092B2F0680119384612F05AF82BE014B14FF00B0927E0F068072129800A
:2064F00002783A7043787B704188B9704288120AFA7001793971C2887A71C088000AB871AC
:2065100013E0584613F01AF85FEA00090BD00F980290CDF8048000942B463A463146504684
:20653000C847814601E04FF00E094846BDE8FE8F8EA601002DE9F84F7A4DDFF8EC81287841
:206550000E46F10BC90328D1A869F1080FD2300938BF0020C0F0E480A87B012804D141461F
:20657000087808B909F05AF986F00806D7E088B111F0AEFD071C0DD0F87A58B9384612F05B
:2065900063FC7A68B97A388903F0B0FA786808B112F08EFA86F00406C1E00AF0BBFF071CFE
:2065B00000F0BB80044620784FF0010BB0380FD0401E03D01F3800F09E80A0E020790028D5
:2065D00040F09D807888F9883A890CF0C5FCA1E02079401E40D0083802D074387DD084E066
:2065F00060781A2875D06088804611F02BFB801E18D0401E79D1208901280AD16089032868
:2066100007D1E1688A78404604210CF077FC024600E018226869002867D04368002B64D091
:20663000042116E0218960885A460129804609D16189032906D1E1688B781BB910210CF0F9
:206650005DFC0246686900284FD04368002B4CD005214046984748E0217A608804F1080A42
:206670000829814635D111F0EDFA801E0ED0401E2FD16089042100220CF040FC02466869C9
:2066900038B343682BB36089042121E0BAF80200102100220CF032FC009048460EF004FF17
:2066B00070B141460B784BB94179831D5A4601F001010846194611F0F6FD01E05846A87373
:2066D000686930B1436823B1BAF80200009A0521984760880EF072F907E06588284611F092
:2066F000B1FA014628460DF0C7F9217904F1080012F020FF03E03846FBF70AFD8346BBF1E6
:20671000000F07D109480078FF2806D0214611F049FB02E0204611F035FB86F40046B0B275
:20673000BDE8F88F600500205A4F00207A0C00202DE9B04307460D460020ADF1180D0FF29C
:206750000C19032243A300970446019580460290C32103944846CDF8108007F047FA384616
:2067700048A3801E08D0801E56D0401E47D0401E38D0401E29D01BE0012D0CD00094019484
:2067900048460294D62103940322049407F02EFAD7213FA34CE00094019448460294D12116
